:020000040800F2
:1000000000400120FD010008F1260008F326000849
:10001000F5260008F7260008F92600080000000071
:10002000000000000000000000000000FB260008A7
:10003000FD26000800000000FF2600080127000838
:10004000251A0008251A0008251A0008251A000894
:10005000251A0008251A0008251A0008251A000884
:10006000251A0008251A0008251A0008251A000874
:10007000251A0008251A0008251A0008251A000864
:10008000251A0008251A0008251A0008251A000854
:10009000251A0008251A0008251A0008251A000844
:1000A000251A0008251A0008251A0008251A000834
:1000B000251A0008251A0008251A0008251A000824
:1000C000251A0008251A0008251A0008251A000814
:1000D000251A0008251A0008251A0008112700080B
:1000E000251A0008251A0008251A0008251A0008F4
:1000F000251A000800000000251A0008251A00082B
:100100001D27000829270008251A0008251A0008BD
:10011000251A0008251A0008251A0008000000000A
:10012000251A000800000000000000000000000088
:1001300000000000000000005FF808F107B501F0C2
:1001400051FC234A234B24498B4204D252F8040F1A
:1001500043F8040BF8E7214B214A0021934202D2D5
:1001600043F8041BFAE701F049FC01A9684601F0D5
:1001700031FC1C4B1C4C1E46E41AA4100025AC425A
:1001800004DD56F8253098470135F8E7174B184C31
:100190001E46E41AA4100025AC4204DD56F82530B2
:1001A00098470135F8E79DE8030001F0BBFF114BCC
:1001B00006461D46104CE41AA410002C04DD013C38
:1001C00055F824309847F8E7304601F000FC00BFAE
:1001D000BC2B000800000020DC010020DC01002016
:1001E000980300208802000888020008880200089E
:1001F00088020008880200088802000814480047A6
:10020000FEE71EF0040F0CBFEFF30880EFF3098048
:100210007146104A1047FEE7FEE71EF0040F0CBFC0
:10022000EFF30880EFF3098071460B4A1047FEE7B1
:100230001EF0040F0CBFEFF30880EFF30980714646
:10024000064A1047FEE7FEE7FEE7FEE770470000BC
:100250003D010008170200082F02000845020008AF
:10026000C02B000800000020DC010020C02B00088B
:100270000000001000000010DC01002098030020A6
:08028000000000100000001056
:1002880010B50446074B18684FF47A73B0FBF3F0C7
:1002980000F084F8002221464FF0FF3000F03EF8CD
:1002A800002010BD0800002008B5032000F024F845
:1002B8000020FFF7E5FF02F0CBF8002008BD0000A2
:1002C800024A136801331360704700BFE801002039
:1002D800014B1868704700BFE801002013B5019072
:1002E800FFF7F6FF0446FFF7F3FF019B001B984258
:1002F800F9D302B010BD0000074A0002D36800F429
:10030800E06023F4E0631B041B0C43F0BF6343F479
:1003180000330343D360704700ED00E0174B30B55E
:10032800DB68C3F30223C3F107041D1D042C28BF97
:100338000424062D4FF0010505FA04F404F1FF34F6
:100348008CBF033B00230C409C4005FA03F3013BA0
:100358001A40002842EA04024FEA0212AFBF00F135
:100368006040074B00F00F00D2B2A5BFD2B200F533
:1003780061401A5480F8002330BD00BF00ED00E052
:1003880014ED00E04209012300F01F0003FA00F019
:10039800014B43F82200704700E100E00138B0F15A
:1003A800807F0AD2064B074AF021586082F8231052
:1003B8000020072298601A6070470120704700BF2C
:1003C80010E000E000ED00E0044B04281A680CBFC0
:1003D80042F0040222F004021A60704710E000E0C4
:1003E800704708B5FFF7FCFF08BD00002DE9F04F86
:1003F800DFF89C810B68444685B0DFF898C101930B
:100408000023019ADA4000F0BE804FF0010E019AF5
:100418000EFA03FE12EA0E0600F0B3804A6822F0D4
:100428001009B9F1020F14D14FEAD30A00EB8A0A76
:1004380003F0070BDAF820704FEA8B0B0F2505FA4B
:100448000BF527EA05050F6907FA0BF72F43CAF8DA
:1004580020704FEA430A032505FA0AF5ED430768B9
:1004680002F0030B2F400BFA0AFB09F1FF394BEAA4
:100478000707B9F1010F076011D8876805EA07096E
:10048800CF6807FA0AF747EA09078760476827EA43
:100498000E0EC2F300179F4047EA0E074760C76871
:1004A8003D408F6807FA0AF73D43C560D50068D517
:1004B800DCF8205023F0030745F00105CCF8205064
:1004C800DCF8205007F1804705F00105039507F592
:1004D800803703F00309039D4FF00F0ED7F808A0EB
:1004E8004FEA89090EFA09F52AEA050E274DA842AE
:1004F8001AD005F58065A84218D005F58065A84290
:1005080016D005F58065A84214D005F58065A84287
:1005180012D005F58065A84210D005F58065A8427F
:1005280014BF072506250AE0002508E0012506E096
:10053800022504E0032502E0042500E0052505FA6C
:1005480009F545EA0E05BD60F743D8F8005012F4E6
:10055800803F0CBF3D4035432560656812F4003F7D
:100568000CBF3D4035436560A56812F4801F0CBF81
:100578003D403543A560E568920254BF3D40354390
:10058800E56001333DE705B0BDE8F08F00000240AB
:10059800000401400038024002B909048161704733
:1005A800436959404161704770B5044608B9012054
:1005B80070BD90F83D3003F0FF021BB980F83C2075
:1005C80001F096FF00F032FD3A4B9842EFD93A49D4
:1005D8002423B0FBF1F184F83D302368374D1A68C5
:1005E80022F001021A605A6822F03F020A435A6058
:1005F80062681E6AAA4281BF4FF4967569434FF438
:100608007A75B1FBF5F126F03F06013131431962E5
:10061800DD692A4925F44F458A4225F0FF0508D8A7
:100628005200B0FBF2F0C0F30B02032A98BF04207B
:1006380016E0A16849B902EB4202B0FBF2F0C0F340
:100648000B0262B140F400400AE019214A43B0FBB2
:10065800F2F0C0F30B0212B140F4404000E0012078
:100668002843D8611A68E069216A22F0C002014370
:100678000A431A609968E2682069104321F403422A
:1006880022F0FF0202439A60DA686069A16922F0E9
:10069800FF0201430A43DA601A68002042F00102AF
:1006A8001A602023206484F83D30206384F83E00DB
:1006B80070BD00BF7F841E0040420F00A08601006D
:1006C8001C4B82B09A6812F0F00F1ED15A6A1A4970
:1006D80012F0805F03D00A6802F4C0520FE05A6A31
:1006E80042F080525A625A6A02F080520192019A8C
:1006F8000A68596A02F4C05221F080515962B2F571
:10070800C05F02D1B0F5404F01D0002305E00B4A8D
:10071800136843F004031360012308490A6822F0B0
:1007280001021A430A60086800F00100584002B04C
:10073800704700BF0038024000700040003C024093
:1007480003682DE9F347D907044603D423689A07B9
:1007580079D402E1BC4B9A6802F00C02082A07D04F
:100768009A6802F00C020C2A18D19B68DB0315D595
:100778004FF4003393FAA3F2B34A116893FAA3F340
:10078800B3FA83F3012203F01F0302FA03F30B42C7
:10079800DCD06368002BD9D1012022E36368AA4D1D
:1007A800012B15D073B92B684FF4003623F480332E
:1007B8002B602B68012723F480232B60FFF788FD2B
:1007C800804632E0052B2B6806D143F480232B604A
:1007D8002B6843F4803305E023F480332B602B68C7
:1007E80023F480232B60FFF773FD8046964F4FF468
:1007F8000035012695FAA5F33A6895FAA5F3B3FAF8
:1008080083F303F01F0306FA03F313429ED1FFF7A5
:100818005FFDC8EB00006428ECD90320E1E2FFF794
:1008280057FDC8EB00006428F7D896FAA6F32A68A3
:1008380096FAA6F3B3FA83F303F01F0307FA03F358
:100848001342ECD182E7804B9A6802F00C02042A2A
:1008580007D09A6802F00C020C2A25D19B68DF03A6
:1008680022D4022393FAA3F2774A106893FAA3F3E7
:10087800B3FA83F3012103F01F0301FA03F30342E0
:10088800134602D0E2688A4286D15A684FF4F8517A
:1008980091FAA1F1B1FA81F1206922F4F85200FA33
:1008A80001F10A435A6058E0E268012592B395FACB
:1008B800A5F3B3FA83F303F1845303F58E139B0076
:1008C8001D60FFF705FD80465F4F022696FAA6F3E6
:1008D8005D483A6896FAA6F3B3FA83F303F01F0368
:1008E80005FA03F3134206D1FFF7F2FCC8EB000048
:1008F8000228EBD991E743684FF4F85292FAA2F232
:10090800B2FA82F2216923F4F85301FA02F213438E
:10091800436022E095FAA5F3B3FA83F303F1845315
:1009280003F58E139B001A60FFF7D2FC8046464FF2
:10093800022696FAA6F33A6896FAA6F3B3FA83F370
:1009480003F01F0305FA03F3134206D0FFF7C0FCB8
:10095800C8EB00000228ECD95FE72368DE0640F107
:10096800DC80394DAB6813F00C0F73D14FF4007372
:1009780093FAA3F2296893FAA3F3B3FA83F3012253
:1009880003F01F0302FA03F30B4203D0A369002B01
:100998003FF402AF2C4D206A6B6803F46043984221
:1009A80019D9FFF78DFE00287FF4F6AE6B6823F4A3
:1009B8006042236A13436B606B684FF07F4292FA80
:1009C800A2F2B2FA82F2E16923F07F4301FA02F25D
:1009D80013436B6017E06B684FF07F4223F460436A
:1009E80003436B606B6892FAA2F2B2FA82F2E16991
:1009F80023F07F4301FA02F213436B60FFF760FEB6
:100A080000287FF4C9AE4FF4604393FAA3F3B3FA16
:100A180083F50D4BF022996892FAA2F2B2FA82F0AD
:100A2800236A4FF40042EB40013302FA03F301F06A
:100A3800F0020649C2408A5C0020D340044A136091
:100A4800FFF71EFC69E000BF00380240BC28000820
:100A580008000020A2694FF48073002A39D093FA65
:100A6800A3F3B3FA83F303F1845303F58E139B00C6
:100A780001261E60FFF72CFC80464FF4007797FA9A
:100A8800A7F3AB492A6897FAA7F3B3FA83F303F0FD
:100A98001F0306FA03F3134206D1FFF719FCC8EB4C
:100AA80000000228EBD9B8E64B6823F46042236AB9
:100AB80013434B604B684FF07F4292FAA2F2B2FAAE
:100AC80082F2E06923F07F4300FA02F213434B609D
:100AD80023E093FAA3F3B3FA83F303F1845303F502
:100AE8008E139B001A60FFF7F3FB80464FF40076E5
:100AF800012796FAA6F32A6896FAA6F3B3FA83F3BF
:100B080003F01F0307FA03F3134206D0FFF7E0FBD5
:100B1800C8EB00000228ECD97FE623681D0703D440
:100B28002368580745D4CAE06169012501B395FADD
:100B3800A5F2B2FA82F27F4B7D4F13449B001D60F1
:100B4800FFF7C6FB8046022696FAA6F37A6B96FA5A
:100B5800A6F3B3FA83F303F01F0305FA03F3134272
:100B6800DED1FFF7B5FBC8EB00000228ECD954E64C
:100B780095FAA5F2B2FA82F26E4B6D4F13449B00C0
:100B88001960FFF7A5FB8046022696FAA6F37A6B52
:100B980096FAA6F3B3FA83F303F01F0305FA03F3F7
:100BA8001342BDD0FFF794FBC8EB00000228ECD934
:100BB80033E65F4B5A6AD1000AD45A6A012642F0DA
:100BC80080525A625B6A03F080530193019B00E0F4
:100BD8000026594D2B68DA0504D5A368544D012B1E
:100BE80010D126E02B6843F480732B60FFF770FB6D
:100BF80007462B68DB05F0D4FFF76AFBC01B6428A7
:100C0800F7D90AE67BB96B6B4FF4007723F480734E
:100C18006B636B6B4FF0010823F480636B63FFF722
:100C280057FB814638E0052B6B6B06D143F4806394
:100C38006B636B6B43F4807305E023F480736B6321
:100C48006B6B23F480636B63FFF742FB8146DFF82D
:100C5800E0804FF40075012795FAA5F3D8F8342001
:100C680095FAA5F3B3FA83F303F01F0307FA03F326
:100C780013421ED1FFF72CFB41F28833C9EB000069
:100C88009842E9D9C9E5FFF723FB41F28833C9EB5C
:100C9800000098423FF6C1AD97FAA7F36A6B97FA3E
:100CA800A7F3B3FA83F303F01F0308FA03F313421D
:100CB800E9D126B11E4A536A23F080535362626A0F
:100CC8000AB900208DE01A4DAB6803F00C030C2B19
:100CD8003FF462AD022A4FF080735DD193FAA3F31B
:100CE800B3FA83F303F1845303F58E139B000022B8
:100CF8001A60FFF7EDFA82464FF000784FF00109CD
:100D080098FAA8F30A4E2A6898FAA8F3B3FA83F374
:100D180003F01F0309FA03F313424FF001070DD044
:100D2800FFF7D6FACAEB00000228E9D975E500BF3B
:100D380000380240A0C1911000700040E26AA16A28
:100D4800B3681143226B23F47D030A431343B36052
:100D58004FF0807393FAA3F3B3FA83F303F1845348
:100D680003F58E139B001F60FFF7B2FA05464FF09C
:100D7800007494FAA4F3326894FAA4F3B3FA83F3F0
:100D880003F01F0307FA03F313429AD1FFF7A0FAFF
:100D9800401B0228EDD940E593FAA3F3B3FA83F395
:100DA80003F1845303F58E139B0000221A60FFF7AA
:100DB8008FFA07464FF00074012694FAA4F32A68C4
:100DC80094FAA4F3B3FA83F303F01F0306FA03F3C8
:100DD80013423FF476AFFFF77BFAC01B0228ECD929
:100DE8001BE502B0BDE8F0871E498B6803F00C02D2
:100DF800082A14D00C2A14D0042A31D04B684FF496
:100E0800604090FAA0F0B0FA80F003F4604323FA4F
:100E180000F001304FF4004303FA00F07047124825
:100E280070474FF4701292FAA2F2B2FA82F203F407
:100E3800701020FA02F20D48805C4FF4400292FADA
:100E4800A2F2B2FA82F203F44003D3408A68013373
:100E5800D2034CBF044A064A5043B0FBF3F0704734
:100E6800034870470038024000366E01D428000855
:100E78000024F400664B2DE9F0411A68064602F09A
:100E880001028A420D460AD331688F071AD5614894
:100E9800836823F0F002B3681343836012E00129EA
:100EA80002BF1A6842F004021A601A6822F00102AE
:100EB8000A431A601B6803F001039942E4D0012039
:100EC800BDE8F081CC0706D4514B1A6802F0010244
:100ED80095426BD371E072684E49022A02D14FF4F1
:100EE800003316E0032A02D14FF0007311E0012A03
:100EF8000DD1022393FAA3F0096893FAA3F3B3FA86
:100F080083F303F01F0302FA03F30B420EE04FF4DE
:100F1800007393FAA3F0086893FAA3F3B3FA83F380
:100F2800012103F01F0301FA03F30342C7D0394C30
:100F380041F28838A36823F003031A43A260FFF73D
:100F4800C7F973680746022B0CD1A36803F00C039A
:100F5800082BB9D0FFF7BCF9C01B4045F5D90320D1
:100F6800BDE8F081032B0AD1A36803F00C030C2B16
:100F7800AAD0FFF7ADF9C01B4045F5D9EFE7012B23
:100F88000FD1A36803F00C03042B9DD0FFF7A0F941
:100F9800C01B4045F5D9E2E7FFF79AF9C01B404569
:100FA800DDD8A36813F00C0FF6D18DE71A6822F08C
:100FB80001021A601B68DA0781D43168480706D530
:100FC8001448836823F4E062F368134383600B07D3
:100FD80007D5104A3169936823F4605343EAC10383
:100FE8009360FFF701FF0B4BF0229B6892FAA2F285
:100FF800B2FA82F203F0F003D340074AD35CD84038
:10100800064B18600020FFF73BF90020BDE8F0818F
:10101800003C024000380240BC28000808000020BC
:10102800014B1868704700BF08000020084B4FF4B8
:10103800E0629B6892FAA2F2B2FA82F203F4E063E9
:10104800D340044AD35C044A1068D840704700BFB4
:1010580000380240CC28000808000020084B4FF454
:1010680060529B6892FAA2F2B2FA82F203F46053D9
:10107800D340044AD35C044A1068D840704700BF84
:1010880000380240CC28000808000020B0F1804F4A
:1010980003680ED01C4A90420BD002F58062904241
:1010A80007D002F58062904203D002F57C4290425C
:1010B80016D14A6823F07003B0F1804F43EA020367
:1010C80015D0114A904212D002F5806290420ED09B
:1010D80002F5806290420AD002F57C42904206D026
:1010E8000A4A904203D002F58062904203D1CA684E
:1010F80023F44073134303608B68C3620B688362F5
:1011080001234361704700BF00040040000C014008
:10111800036A30B523F001030362036A45688269F4
:1011280022F073040A68224323F002048B684560A6
:1011380082614A6823434263036230BD036A30B563
:1011480023F010030362036A446882690D6822F47D
:10115800E64242EA05228D6823F02003446082615A
:101168004A6843EA05138263036230BD10B5012360
:10117800046A8B4024EA03030362036A8A4042EA52
:101188000301016210BD10B50446A0B190F83530D6
:1011980003F0FF021BB980F8342001F079FA02232A
:1011A80084F835302068211DFFF770FF012384F88B
:1011B8003530002010BD012010BD10B504460122B5
:1011C8000068FFF7D3FF22680020136843F001038B
:1011D800136010BDFFF7F1BF90F8343070B5012BE4
:1011E80005460C464FF002007DD0012385F83430C7
:1011F80085F835000C2A70D8DFE802F0076F6F6FAA
:10120800176F6F6F296F6F6F4B002868FFF780FFAC
:101218002B689A6942F008029A619A6922F00402DE
:101228009A619969E2680A430FE02868FFF786FF28
:101238002B68C9689A6942F400629A619A6922F433
:1012480080629A619A6942EA01229A6145E02B68B4
:101258001A6A22F480721A621A6A5E68D96922F4DC
:10126800007221F0730021680143A0685E60D961B3
:10127800616842EA0022D9631A62DA6942F0080218
:10128800DA61DA6922F00402DA61D969E2680A43AC
:1012980022E02B6826681A6A22F480521A621A6AB7
:1012A8005868D96922F4005221F4E64141EA06213E
:1012B800A6685860D961616842EA063219641A6200
:1012C800DA69E16842F40062DA61DA6922F480627C
:1012D800DA61DA6942EA0122DA610123002085F83D
:1012E800353085F8340070BD90F8343010B5012BD6
:1012F8004FF0020318D080F8353003685A6822F09E
:1013080070025A605C680A6822435A609A6822F040
:1013180080029A609C684A6822439A60012380F898
:101328003530002380F83430184610BD2DE9F047D9
:1013380081460668D9F80810336923F44052C36817
:10134800C06913433361D9F81030F2681943D9F8EA
:101358001430B0F5004F43EA010343EA000122F4D8
:10136800164323F00C0343EA0103F360736923F483
:101378004072D9F8183043EA020373617D4B7DD17E
:101388009E424FF0190432D1FFF768FE6043D9F846
:1013980004704FF064087F00B0FBF7F7FFF75EFEBC
:1013A8006043D9F80450B7FBF8F76D00B0FBF5F5CA
:1013B800FFF754FE6043D9F804303F015B00B0FBEF
:1013C800F3F0B0FBF8F008FB1055FFF747FEED000F
:1013D8003235B5FBF8F56043D9F804106D004900C3
:1013E80005F4F875B0FBF1FAFFF738FE31E0FFF7C6
:1013F8001DFE6043D9F804704FF064087F00B0FB0D
:10140800F7F7FFF713FE6043D9F80450B7FBF8F776
:101418006D00B0FBF5F5FFF709FE6043D9F804301D
:101428003F015B00B0FBF3F0B0FBF8F008FB105590
:10143800FFF7FCFDED003235B5FBF8F56043D9F850
:1014480004106D00490005F4F875B0FBF1FAFFF7D8
:10145800EDFD4443D9F804004000B4FBF0F0B0FBC4
:10146800F8F008FB10A2D2003232B2FBF8F303F016
:1014780007033B441D44B560BDE8F0879E424FF02A
:10148800190431D1FFF7EAFD6043D9F804704FF031
:101498006408BF00B0FBF7F7FFF7E0FD6043D9F839
:1014A8000450B7FBF8F7AD00B0FBF5F5FFF7D6FD34
:1014B8006043D9F804303F019B00B0FBF3F0B0FB68
:1014C800F8F008FB1055FFF7C9FD2D013235B5FBC3
:1014D800F8F56043D9F8041005F0F0058900B0FB71
:1014E800F1FAFFF7BBFD30E0FFF7A0FD6043D9F844
:1014F80004704FF06408BF00B0FBF7F7FFF796FDE4
:101508006043D9F80450B7FBF8F7AD00B0FBF5F528
:10151800FFF78CFD6043D9F804303F019B00B0FB16
:10152800F3F0B0FBF8F008FB1055FFF77FFD2D0135
:101538003235B5FBF8F56043D9F8041005F0F0052D
:101548008900B0FBF1FAFFF771FD4443D9F80400B4
:101558008000B4FBF0F0B0FBF8F008FB10A2120119
:101568003232B2FBF8F303F00F032B441F44B76089
:10157800BDE8F08700380140F8B504460E46154628
:10158800FEF7A6FE07462268136836EA030321D051
:101598006B1CF9D0C5B923680320DA6822F08002F1
:1015A800DA60DA6822F02002DA60DA6822F48072FF
:1015B800DA605A6922F001025A61012384F839304D
:1015C800002384F83830F8BDFEF782FEC01B854240
:1015D800D9D2E0E70020F8BD10B5044630B390F842
:1015E800393003F0FF021BB980F8382000F0A8FF5B
:1015F8002268022384F83930D368204623F4005344
:10160800D360FFF793FE236800201A6922F4904202
:101618001A615A6922F02A025A61DA6842F40052C1
:10162800DA600123E06384F8393010BD012010BD71
:1016380070B50D4690F839100446C9B201291E4606
:1016480001D022294ED1002D4AD0002A48D094F842
:101658003830012B46D0012384F838300023E36367
:1016680094F83930A284222B0CBF3223122384F839
:101678003930E284E28C02B3A368013AB3F5805FA3
:10168800E2844FF08001324620460DD1FFF774FF07
:1016980008B1032070BD2B882268C3F30803536088
:1016A800236943B90235E5E7FFF766FF0028F0D163
:1016B80023682A785A600135DCE732464021204603
:1016C800FFF75AFF0028E4D194F83930322B0CBFC9
:1016D8002223012384F83930002384F8383070BD80
:1016E800012070BD022070BD70B51E4690F83930DB
:1016F8000446DBB2012B0D4601D0122B50D1002D30
:101708004CD0002A4AD094F83830012B48D0012315
:1017180084F838300023E36394F83930A285122B1B
:101728000CBF3223222384F83930E285E38D4BB392
:10173800013BE385A3683246B3F5805F4FF0200193
:10174800204611D1FFF718FF08B1032070BD2368A8
:1017580022695B6822B9C3F3080325F8023BE5E771
:10176800DBB225F8013BE1E7FFF706FF0028ECD1E3
:10177800236821696A1C5B6809B103F07F032B7039
:101788001546D3E794F839300020322B0CBF1223CA
:10179800012384F8393084F8380070BD012070BD09
:1017A800022070BD90F83930DBB2012B01D0122B2A
:1017B80028D129B322B390F83830012B22D0012345
:1017C80080F838300023C3638285C28590F83920B9
:1017D80080F83830122A03680CBF3222222280F89F
:1017E8003920DA68816242F48072DA605A6900202E
:1017F80042F001025A61DA6842F02002DA6070476A
:101808000120704702207047704770477047026890
:1018180013B511680446C907D36805D5DB0542BF6F
:10182800C36B43F00103C36311685369880703F06E
:10183800010304D51BB1E16B41F00401E1631168B8
:10184800490704D51BB1E16B41F00201E16311685E
:10185800080704D51BB1E36B43F00803E363116881
:10186800D368890642D5980640D594F8393003F0F4
:10187800EF03222B3AD1A3682169B3F5805FA36AED
:101888000BD1526821B9C2F3080223F8022B02E0F7
:10189800D2B223F8012BA3620AE019B9591CA1623C
:1018A800526804E05268591CA16202F07F021A7063
:1018B800E38D013B9BB2E385C3B923682046DA6810
:1018C80022F02002DA6094F83920322A17BFDA6849
:1018D800122322F48072DA601FBF5A6922F00102D3
:1018E8005A61012384F83930FFF78FFF236819689C
:1018F800DA68090628D5100626D594F8392002F0AA
:10190800DF02122A20D1A268B2F5805F226A0AD1CA
:101918001188C1F308015960216909B9023200E050
:101928000132226203E0511C216212785A60E28C73
:10193800013A92B2E2843AB9DA6822F08002DA60B7
:10194800DA6842F04002DA601968DA68490610D5A8
:1019580052060ED5DA68204622F04002DA6094F882
:101968003930322B0CBF2223012384F83930FFF79A
:101978004BFFE36B5BB1236820461A6801925B68F2
:101988000193019B012384F83930FFF73FFF02B030
:1019980010BD704710B5044670B1FFF7FAFFE36851
:1019A800216843F080030B602269636800201A43B2
:1019B800A36813434B6010BD012010BD0368C268C3
:1019C80000201A60704708B500F016F8012303607C
:1019D800014B0B60704700BF0000002008B500F005
:1019E8001FF8024B024A9A6008BD00BF00ED00E0F4
:1019F8000000000800F038B8BFF34F8F0549064BC8
:101A0800CA6802F4E0621343CB60BFF34F8F00BF94
:101A1800FDE700BF00ED00E00400FA05FEE7000066
:101A28000E4B1A6842F480721A6099680C4A0A4090
:101A38009A601A6822F0885222F001121A601A6815
:101A480022F480221A609A6822F47D029A600022A9
:101A5800DA60044B4FF000629A6070470038024029
:101A68000CC0FF8800ED00E01A4910B58B681A4ACF
:101A780003F00C030C2B19D8DFE803F0181818181A
:101A880007181818071818180900144B16E08B685F
:101A9800134CC3F383438868E45C8B680F4BC0F333
:101AA800815063430130B3FBF0F307E04B684FF418
:101AB8000041C3F34233013301FA03F31360054BCA
:101AC80008499B68C3F30313C95C1368CB401360D0
:101AD80010BD00BF003802400800002000127A0044
:101AE800D4280008BC28000870B506460D46064CE8
:101AF8004FF0FF33052205492046FFF799FD044BB7
:101B080025601E6070BD00BFE4010020DD280008CC
:101B1800E0010020324B2DE9F041DA698AB042F049
:101B28000402DA61DA692F4E02F004020192019A86
:101B3800DA69DFF8BC8042F00102DA61DA6930461E
:101B480002F001020292029ADA69274F42F0020279
:101B5800DA61DA69802102F002020392039ADA69F3
:101B6800002442F00802DA61DB69002203F008036E
:101B78000493049BFEF710FD404600222021FEF747
:101B88000BFD002238464021FEF706FD4FF40053B6
:101B98000593164B05A93046012506930794FEF7D1
:101BA80025FC802305A930460593069507940894DB
:101BB800FEF71CFC202305A94046059306950794CB
:101BC8000894FEF713FC402305A9384605930695AB
:101BD80007940894FEF70AFC0AB0BDE8F08100BF3C
:101BE80000380240000802400004024000001110C2
:101BF800000002407FB54FF0FF3311221C491D48F9
:101C08001D4DFFF715FD4FF4FA50FEF767FB2E89BF
:101C180000242868696801AB03C30A221E8001A951
:101C28004FF0FF331548FFF703FD012269461348BB
:101C3800FFF7B8FD88B99DF80030312B0AD14FF075
:101C4800FF3308220E490B48FFF7F2FC0D4B012227
:101C58001A700BE0302B08BF0134312CD9DD4FF05E
:101C6800FF33152208490348FFF7E2FC04B070BDB2
:101C7800A929000858030020E2280008F8010020DC
:101C8800BB290008F0010020C429000830B53A4CEF
:101C98008BB04FF0FF330A2238493948FFF7C8FCA8
:101CA800384D2068237902908DF80C3005224FF0CA
:101CB800FF3302A92846FFF7BBFC4FF0FF3306228B
:101CC80031492F48FFF7B4FC4FF4FA60FEF706FBE2
:101CD800224652F8050F07AB5168128903C307A9BA
:101CE8001A8028464FF0FF330A22FFF7A1FC4FF075
:101CF800FF330D2225492248FFF79AFC4FF4FA607A
:101D0800FEF7ECFA54F80F0F2B6861685B6804ABB8
:101D180003C3227A04A91A7028464FF0FF33092218
:101D2800FFF786FC04220DEB02014FF0FF33284633
:101D3800FFF7DAFC4FF0FF33272215491048FFF769
:101D480077FC9DF806304F2B0DD19DF807304B2BB3
:101D580009D14FF0FF330F220E490948FFF768FCFD
:101D6800FFF748FF06E04FF0FF33272208490448F1
:101D7800FFF75EFC0BB030BDEC280008DC2900083A
:101D880058030020F8010020992A0008E7290008D4
:101D9800F52900081D2A000870B5AAB06A466D46E4
:101DA800454B03F11806144618685968083303C4EC
:101DB800B3422246F7D11B781922237029464FF0E7
:101DC800FF333E48FFF734FC07AA15463C4B03F1A6
:101DD8001806144618685968083303C4B3422246E3
:101DE800F7D11B781922237029464FF0FF33334867
:101DF800FFF71EFC0EAA1546324B03F118061446CF
:101E080018685968083303C4B3422246F7D11B78CF
:101E18001922237029464FF0FF332848FFF708FCA2
:101E280015AA1546284B03F1180614461868596870
:101E3800083303C4B3422246F7D11B781922237012
:101E480029464FF0FF331D48FFF7F2FB1CAA154641
:101E58001E4B03F11806144618685968083303C462
:101E6800B3422246F7D11B781922237029464FF036
:101E7800FF331248FFF7DCFB23AA1546144B03F186
:101E88001806144618685968083303C4B342224632
:101E9800F7D11B782946237019224FF0FF330748E2
:101EA800FFF7C6FB4FF0FF3314220A490A48FFF731
:101EB800BFFB2AB070BD00BF04290008D80200206B
:101EC8001D290008362900084F290008682900083C
:101ED800812900082D2A00085803002070B54FF00A
:101EE800FF330B2210491148FFF7A2FB104E0024C4
:101EF800336802205C630134FEF7F0F9C92C0C4DFD
:101F0800F6D14FF4C870FEF7E9F9C8242B6802200F
:101F18005C63FEF7E3F914F1FF34F7D24FF4C870AD
:101F2800BDE87040FEF7DAB9422A000858030020DD
:101F3800A002002070B51F4B94B01B6800245B689A
:101F4800012269461B48FFF72DFC03460028F7D1FC
:101F58009DF8002014A90D190A2A05F8412C26D14C
:101F6800154E01AA3068716803C21846318911807C
:101F780001AB04AA0344825C013084429A72F7DA06
:101F88000D2305F8413C0A231C44A4B2224605F857
:101F9800403C01A94FF0FF330848FFF749FB2246B0
:101FA8004FF0FF3301A90648FFF742FB0024013434
:101FB800C6E700BFD80200209A290008580300206D
:101FC800F8010020F0B587B001F10C0200AFBA7239
:101FD800B422FA7213223A7332227A73D722BA736E
:101FE80010227A740122BA742022FA7440223A75B7
:101FF80001F11A0222F00702ADEB020D6C464123F3
:102008003B7154237B712423BB714423FB71C02390
:102018003B7200237B72FB733B747B75B97501F1CE
:1020280013053A1D9A5CE2540133142BF9D1034687
:1020380004F112021E1AB14204DB13F8016B02F814
:10204800016FF7E7ADB22A4621464FF0FF33064845
:10205800FFF7EEFA4FF0FF332A4621460348FFF711
:10206800E7FA1C37BD46F0BD5803002018030020CE
:1020780007B54FF0FF330B2208490948FFF7D8FA94
:10208800084B052153F8C20F1B79009068468DF85C
:102098000430FFF797FF03B05DF804FB542A0008EB
:1020A80058030020E22800081B4A10B5136892B0B4
:1020B80023F4C05343F400631360102305930123F2
:1020C8000B934FF42042002305A80C930D920E9316
:1020D800FEF736FB014600B1FEE70F2301900290A0
:1020E8000390049068460093FEF7C4FE044600B1CE
:1020F800FEE7FEF795FF4FF47A73B0FBF3F0FEF7B7
:102108004DF90420FEF760F9224621464FF0FF30D2
:10211800FEF704F912B010BD007000402DE9F04F31
:102128009DB0FEF7C1F8FFF7BFFF4FF0804393FA69
:10213800A3F2AB4C616B93FAA3F3B3FA83F30122D6
:1021480003F01F0302FA03F30B424FF0FF3309D0E9
:102158001122A449A448FFF76BFA636B43F080731C
:10216800636304E01522A1499F48FFF761FAA04C78
:10217800A04B4FF4C0774FF0500C4FF0FF0E2046A5
:1021880084E88850FFF706FC00B1FEE72046FFF719
:1021980001FC064600B1FEE7934D974FDFF89C928D
:1021A800964C974A032329463860C9F80000204610
:1021B8001370FFF799FC4FF0FF330B229149284623
:1021C800FFF736FA41F28830FEF788F8FFF7A2FCED
:1021D8008D4B28464FF4E13B4FF00C0A85E8080880
:1021E800AE60EE602E61C5F814A0AE61EE61FFF737
:1021F800F3F9834D00B1FEE7844B854A9860D860B7
:1022080018619861D861184683E80408C3F814A0D7
:10221800FFF7E2F900B1FEE77E4B7F4EA06084E84D
:102228004800E0604FF480436061A061E061206293
:1022380020462361FEF7B8F900B1FEE7774B784AEC
:102248009860D86018619861D861184683E80408D6
:10225800C3F814A0FFF7C0F900B1FEE7714B72494B
:102268004FF496529860D86018619861D861184602
:1022780083E80600C3F814A0FFF7AEF9064600B1DC
:10228800FEE7FFF747FC694C694A182384E80C000D
:1022980020464FF4FA73A660E3602661FEF773FFE9
:1022A80000B1FEE70190029001A92046FFF71CF853
:1022B800024600B1FEE7602304900590069003A94A
:1022C80020460393FEF788FF00B1FEE7574800F069
:1022D800F3F900215548FEF77DFFFFF7FFFD2B7846
:1022E800062B5DD8DFE803F006215C043C4A4C006D
:1022F800012329E04FF0FF330D224E493A48FFF7FA
:1023080097F9D9F8003033B980214B48FEF748F9DE
:102318004A4B01221A60FFF7B9FC3B680133042BD2
:102328003B6019DD04232B7016E080214248FEF73C
:1023380037F940214248FEF733F941F28830FDF77A
:10234800CDFFFFF729FD05232B704FF0FF330A223D
:102358003C492548FFF76CF92548FFF72FFB1FE09C
:102368004FF0FF33062238491F48FFF761F9FFF79E
:102378007FFE4FF4FA60FDF7B1FFE6E7FFF7DAFDFD
:10238800B8F1020F07D0B8F1030F07D0B8F1010F69
:1023980006D1042300E000232B7001E085F80080BB
:1023A800142203A91D48FFF7FDF9002895D19DF8CF
:1023B8001F30312B91D19DF82030412B8DD1202118
:1023C8002248FEF7EDF86420FDF788FF20211F481A
:1023D800FEF7E6F89DF81B0000F0A8F980467CE7B8
:1023E80000380240602A000858030020722A0008BA
:1023F80038020020002C0040F40100204C0200208C
:10240800F0010020882A000800440040F80100205C
:102418000048004000540040A08601001803002036
:10242800004C0040D802002000500040A0020020CC
:1024380000040040A02A000800080240EC01002027
:1024480000040240952A0008AE2A00080000024055
:102458001FB5264B03205A6A42F000425A625A6A54
:1024680002F000420192019A1A6A42F001021A62CD
:102478001A6A02F001020292029A5A6A42F08052E3
:102488005A625B6A03F080530393039BFDF734FFA2
:10249800002211466FF00B00FDF740FF00221146A5
:1024A8006FF00A00FDF73AFF002211466FF00900AD
:1024B800FDF734FF002211466FF00400FDF72EFFF0
:1024C800002211466FF00300FDF728FF0022114695
:1024D8006FF00100FDF722FF002211464FF0FF3098
:1024E800FDF71CFF05B05DF804FB00BF0038024093
:1024F8007FB502680F4B9A4219D14FF4407301938C
:1025080012230293012303930323049304230DEB63
:10251800030109480593FDF769FF084B5A6A42F41D
:1025280000125A625B6A03F400130093009B07B021
:102538005DF804FB005400400004024000380240EB
:10254800F0B50368494A8BB093421FD1484B05A99F
:102558005A6A484842F400225A625B6A03F400232C
:102568000193019B4FF440630593022306930123D3
:1025780007930323089308230993FDF737FF0022E5
:1025880030201146FDF7CAFE30206AE03A4A9342ED
:1025980029D1374B02275A6A012642F480125A621F
:1025A8005B6A032503F480130293029B08244FF40B
:1025B800805305A92F48059306970796089509940F
:1025C800FDF714FF042305A92C48059306970796E1
:1025D80008950994FDF70AFF002231201146FDF7FE
:1025E8009DFE31203DE0264A934218D1204B05A993
:1025F8005A6A244842F400325A625B6A03F4003390
:102608000393039B0C23059302230693012307934B
:102618000323089307230993FDF7E8FE23E01A4AEA
:10262800934220D1124B05A95A6A184842F48022D5
:102638005A625B6A03F480230493049B4FF440635B
:102648000593022306930123079303230893072383
:102658000993FDF7CBFE002227201146FDF75EFE09
:102668002720FDF78FFE0BB0F0BD00BF004C0040E7
:10267800003802400008024000500040000C0240B0
:1026880000440040000002400048004000040240AE
:102698000268084B82B09A420AD103F50D335A6A90
:1026A80042F002025A625B6A03F002030193019B43
:1026B80002B07047000400407FB50268084B9A4298
:1026C8000BD110230022019301A90223054802938C
:1026D800039204920593FDF789FE07B05DF804FBA9
:1026E80000040040000402407047FEE7FEE7FEE7F2
:1026F800FEE770477047704708B5FDF7E1FDBDE894
:102708000840FDF76EBE00000148FFF780B800BF23
:10271800F80100200148FFF77AB800BF180300202D
:102728000148FFF774B800BFD80200200A22002130
:1027380000F088B82DE9F0478046894692461E4643
:102748000F463D46089815F8014B00F091F82044D3
:10275800427802F0080202F0FF030AB12F46F0E7C0
:102768002D2C03D1BD1C7C78012303E02B2C04BF46
:102778007C78BD1C16B1102E0AD15EE0302C5AD1DF
:102788002A7802F0DF02582A50D16C7810260235D8
:10279800002B14BF4FF000426FF00042B2FBF6FE70
:1027A80006FB1E2100221046A4F13007092F01D88C
:1027B8003C460AE0A4F14107192F01D8373C04E050
:1027C800A4F16107192F13D8573CA64210DD571CF6
:1027D8000BD0864507D301D1A14203DB00FB06409D
:1027E800012202E070464FF0FF3215F8014BDBE79B
:1027F800511C0ED1002B4FF0220314BF4FF00040A4
:102808006FF00040C8F80030BAF1000F07D1BDE8FA
:10281800F08703B14042BAF1000F11D00AB1013D6F
:1028280000E04D46CAF80050BDE8F0873024002E7D
:10283800AED10826ACE70A26AAE7302CA0D0A7E735
:10284800BDE8F087084B37B51C68084D236A002B94
:1028580008BF2B46009313460A4601462046FFF759
:1028680069FF03B030BD00BF6C000020700000207D
:10287800D0F8EC00704782B001B901A93AB143B170
:1028880013780B601278101C18BF012003E0104663
:1028980001E06FF0010002B0704749B1FF2A85BF1F
:1028A8008A2303600A704FF0FF3098BF01207047F9
:1028B8000846704700000000000000000102030401
:1028C80006070809000000000102030403040608C3
:1028D8000C10182030746573740041542B4E4A5301
:1028E8003D3F0D0A41545A0D0A41542B43464D3D74
:1028F800310D0A41542B4A4F494E0D0A2450535268
:10290800463130332C30302C30302C30302C3031B4
:102918002A32340D0A24505352463130332C303188
:102928002C30302C36302C30312A32330D0A2450DA
:102938005352463130332C30322C30302C30302C3E
:1029480030312A32360D0A24505352463130332C56
:1029580030332C30302C30302C30312A32370D0ABD
:1029680024505352463130332C30342C30302C30F4
:10297800302C30312A32300D0A245053524631302F
:10298800332C30352C30302C30302C30312A323149
:102998000D0A41542B53454E443D323A6572726FCD
:1029A80072436865636B20436F6E6E656374696F0D
:1029B8006E0A004A4F494E4544210A00434F554C80
:1029C80044204E4F54204A4F494E2C2052455345DF
:1029D80054210A00496E6974204C6F72610A0043E1
:1029E8004F4E4649524D204D4F44450A004E6F20E8
:1029F8006F7220706F6F7220636F6E6E656374699B
:102A08006F6E2077697468204C6F7261204D6F6417
:102A1800756C650A00545259204A4F494E494E4731
:102A28002E2E2E0A0047505320697320696E697450
:102A380069616C697A6564210A0042555A5A45529F
:102A480020474F494E47204F46460A004A4F494EB5
:102A5800204552524F520A00575744475253542068
:102A6800464C4147205345540A0057574447525350
:102A78005420464C4147204E4F54205345540A0099
:102A88005374617274696E672E2E2E0A005757446C
:102A98004752455345540A0044616E676572207A6F
:102AA8006F6E65210A00416C61726D0A0043005027
:102AB8004F534958002E000020202020202020209D
:102AC80020282828282820202020202020202020D6
:102AD80020202020202020208810101010101010F6
:102AE800101010101010101004040404040404043E
:102AF80004041010101010101041414141414101CF
:102B080001010101010101010101010101010101AD
:102B180001010110101010101042424242424202BC
:102B2800020202020202020202020202020202027D
:102B38000202021010101020000000000000000027
:102B4800000000000000000000000000000000007D
:102B5800000000000000000000000000000000006D
:102B6800000000000000000000000000000000005D
:102B7800000000000000000000000000000000004D
:102B8800000000000000000000000000000000003D
:102B9800000000000000000000000000000000002D
:102BA800000000000000000000000000000000001D
:082BB800000000000000000015
:102BC000DC0100200000000068FF1F000000000082
:102BD00000000000000000000000000000000000F5
:102BE00000000000000000000000000000000000E5
:102BF00000000000000000000000000000000000D5
:102C000000000000000000000000000000000000C4
:102C100000000000000000000000000000000000B4
:102C20000000000000000000000000000C00002078
:102C30004300000000000000000000000000000051
:102C40000000000000000000000000000000000084
:102C50004300000000000000000000000000000031
:102C60000000000000000000000000000000000064
:102C70004300000000000000000000000000000011
:102C80000000000000000000000000000000000044
:102C900043000000000000000000000000000000F1
:102CA0000000000000000000000000000000000024
:102CB00043000000000000000000000000000000D1
:102CC0000000000000000000000000000000000004
:102CD00043000000000000000000000000000000B1
:102CE00000000000000000000000000000000000E4
:102CF0004300000000000000000000000000000091
:102D000000000000000000000000000000000000C3
:102D1000A32800087F28000800000000BF2A000840
:102D2000BD2A0008C3290008C3290008C3290008D8
:102D3000C3290008C3290008C3290008C3290008C3
:102D4000C3290008C3290008FFFFFFFFFFFFFFFFA3
:102D5000FFFFFFFFFFFF000001004153434949000F
:102D60000000000000000000000000000000000063
:102D700000000000000000000000415343494900EA
:102D80000000000000000000000000000000000043
:0C2D900000000000000000000000000037
:040000050800013DB1
:00000001FF
