:020000040800F2
:100000000040012051020008B1290008B52900086C
:10001000B9290008BD290008C12900080000000016
:10002000000000000000000000000000C5290008DA
:10003000C929000800000000CD290008D1290008C6
:10004000151E0008151E0008151E0008151E0008C4
:10005000151E0008151E0008151E0008151E0008B4
:10006000151E0008151E0008151E0008151E0008A4
:10007000151E0008151E0008151E0008151E000894
:10008000151E0008151E0008151E0008151E000884
:10009000151E0008151E0008151E0008151E000874
:1000A000151E0008151E0008151E0008151E000864
:1000B000151E0008151E0008151E0008151E000854
:1000C000151E0008151E0008151E0008151E000844
:1000D000151E0008151E0008151E0008DD29000861
:1000E000151E0008151E0008151E0008151E000824
:1000F000151E000800000000151E0008151E00084F
:10010000ED290008FD290008151E0008151E00082D
:10011000151E0008151E0008151E0008000000002E
:10012000151E000800000000000000000000000094
:1001300000000000000000005FF808F100B583B087
:1001400001F0E0FD304B314A1360314A1360314B0E
:10015000314A03E011681960043304322F498B429D
:10016000F8D32A4B1A682E4B9A4204D1284B1A68AE
:100170002C4B9A4200D0FEE7234B2B4A13602B4AAC
:1001800013602B4B02E000221A600433294A934289
:10019000F9D3254B1B6813B9244B1B6803B1FEE749
:1001A00001F0BCFD694601A801F088FD224C234BFB
:1001B0001C1BA410002504E01F4B53F82530984762
:1001C0000135AC42F8DC1E4C1E4B1C1BA410002554
:1001D00004E01B4B53F8253098470135AC42F8DC5E
:1001E0000099019802F024FA0546174C174B1C1B86
:1001F000A41004E0013C144B53F824309847002C21
:10020000F8DC284601F036FDBABADECA000000204C
:100210007400002000000020203600087800002034
:100220007856341232547698780000207C020020F0
:1002300078000020800200207C0300087C03000876
:100240007C0300087C0300087C0300087C03000892
:1002500008B5FFF773FF00BF00BEFEE71EF0040FF6
:100260000CBFEFF30880EFF309807146364A104760
:100270002DE9F04182B004468846084B5E6B9F6BC7
:100280009D6A074801F022FDCDF800803B463246CA
:100290002946204601F046FD00BEFEE700ED00E0E5
:1002A000BC33000800BEFEE71EF0040F0CBFEFF3E6
:1002B0000880EFF309807146244A10472DE9F04188
:1002C00082B004468846084B5E6B9F6B9D6A074868
:1002D00001F0FCFCCDF800803B4632462946204622
:1002E00001F020FD00BEFEE700ED00E0CC33000889
:1002F0001EF0040F0CBFEFF30880EFF30980714686
:10030000134A10472DE9F04182B004468846084B55
:100310005E6B9F6B9D6A074801F0D8FCCDF80080AA
:100320003B4632462946204601F0FCFC00BEFEE773
:1003300000ED00E0D833000800BEFEE700BEFEE797
:1003400000BEFEE77047000071020008BD02000811
:040350000503000899
:100354002036000800000020780000202036000825
:10036400000000100000001078000020800200202F
:08037400000000100000001061
:10037C0010B50446074B1B680748A0FB03308009E7
:10038C0000F084F8002221464FF0FF3000F040F8D6
:10039C00002010BD0C000020D34D621008B50320C6
:1003AC0000F024F80020FFF7E3FF02F0D5F900205D
:1003BC0008BD00BF024A136801331360704700BFC9
:1003CC0014010020014B1868704700BF1401002075
:1003DC0010B582B00190FFF7F5FF0446FFF7F2FF6E
:1003EC00001B019B9842F9D302B010BD074AD36899
:1003FC0023F4E0631B041B0C000200F4E0601843C0
:10040C0040F0BF6040F40030D060704700ED00E079
:10041C0030B4164BDB68C3F30223C3F10704042C7E
:10042C0028BF04241D1D062D01D9DD1E00E000256A
:10043C00012303FA04F4013C2140A940AB40013BE9
:10044C001A400A43002806DA00F00F001201D2B25B
:10045C00074B1A5407E01201D2B200F1604000F5CC
:10046C00614080F8002330BC704700BF00ED00E015
:10047C0014ED00E0420900F01F00012303FA00F024
:10048C00014B43F82200704700E100E00138B0F165
:10049C00807F0AD2064B5860F021064A82F823105E
:1004AC000020986007221A6070470120704700BF37
:1004BC0010E000E000ED00E0042805D1054A1368C7
:1004CC0043F0040313607047024A136823F00403DB
:1004DC001360704710E000E0704700BF08B5FFF7ED
:1004EC00FBFF08BDF0B583B00023C2E001249C40A3
:1004FC00224000F0BD804D68022D01D0122D10D18C
:10050C00DE08083650F826C003F00705AF000F25AB
:10051C00BD402CEA050E0D69BD404EEA050540F8BC
:10052C00265005685F000326BE40F64305EA060E1A
:10053C004D6805F00305BD404EEA050505604D68A4
:10054C0005F1FF3EBEF1010F03D9112D01D0122D83
:10055C0010D1856806EA050ECD68BD404EEA05054A
:10056C008560456825EA04044D68C5F300159D4077
:10057C0025434560C46826408C68BC403443C46045
:10058C004C6814F0805F73D03D4C256A45F0010532
:10059C002562246A04F001040194019C9E08B51C98
:1005AC00384C54F8257003F00304A4000F25A54023
:1005BC0027EA0507344DA84219D005F58065A842F5
:1005CC0017D005F58065A84215D005F58065A842C1
:1005DC0013D005F58065A84211D005F58065A842B9
:1005EC000FD005F58065A8420DD106250CE000253D
:1005FC000AE0012508E0022506E0032504E00425B5
:10060C0002E0052500E0072505FA04F43C43023618
:10061C001C4D45F826401D4C2568D44305EA0406BC
:10062C004F6817F4803F01D042EA0506174D2E6043
:10063C006D6804EA05064F6817F4003F01D042EAE2
:10064C000506124D6E60AD6804EA05064F6817F496
:10065C00801F01D042EA05060C4DAE60ED682C40BF
:10066C004E6816F4001F01D042EA0504074AD46014
:10067C0001330A6832FA03F47FF438AF03B0F0BDEB
:10068C00003802400000014000000240000401401C
:10069C000AB181617047090481617047436959400F
:1006AC0041617047002800F0A38070B5044690F8B3
:1006BC003D3013F0FF0F04D1002380F83C3002F0E2
:1006CC009BF800F041FE4C4B984240F2938024235F
:1006DC0084F83D302268136823F001031360474B04
:1006EC00A3FB00239B0C21684A6822F03F021A43AB
:1006FC004A6025682A6A22F03F02666840498E42A9
:10070C0001D8013308E04FF4967101FB03F33D4926
:10071C00A1FB03139B09013313432B622568EB697F
:10072C0023F44F4323F0FF03626835498A4208D80B
:10073C005200B0FBF2F0C0F30B02032A2BD80420BA
:10074C0029E0A6684EB902EB4201B0FBF1F1C1F30E
:10075C000B01B1FA81F149090AE002EB820101EBCC
:10076C008101B0FBF1F1C1F30B01B1FA81F149093F
:10077C0081B936B902EB4202B0FBF2F040F4004012
:10078C0009E002EB820202EB8202B0FBF2F040F4D1
:10079C00404000E001201843E86121680B6823F019
:1007AC00C002E069236A034313430B6021688B6822
:1007BC0023F4034222F0FF022069E368034313434E
:1007CC008B602168CB6823F0FF026069A369034347
:1007DC001343CB602268136843F0010313600020BD
:1007EC002064202384F83D30206384F83E0070BDE3
:1007FC0001207047012070BD7F841E0083DE1B43E7
:10080C00A0860100D34D621082B0224B9B6813F07E
:10081C00F00F23D11F4B5B6A13F0805F04D01E4B8B
:10082C001B6803F4C05311E01A4A536A43F0805317
:10083C005362536A03F080530193019B164B1B6860
:10084C0003F4C053516A21F080515162B3F5C05F7B
:10085C0006D1B0F5404F05D0002104E0002102E0A4
:10086C00002100E0012121B10C4A136843F004037C
:10087C0013600A4A136823F001030B4313601368D7
:10088C0003F00103994201D0012000E0002002B0E6
:10089C00704700BF0038024000700040003C02402E
:1008AC0070B582B00446036813F0010F00F08E801F
:1008BC00B34B9B6803F00C03082B0AD0B04B9B681E
:1008CC0003F00C030C2B1BD1AD4B9B6813F4803F36
:1008DC0016D04FF4003393FAA3F3A94B19684FF4D5
:1008EC00003393FAA3F3B3FA83F303F01F0301224B
:1008FC0002FA03F3194269D06368002B66D172E3E4
:10090C006368012B05D19E4A136843F4803313604E
:10091C001FE04BB99A4B1A6822F480321A601A689D
:10092C0022F480221A6014E0052B09D1944B1A682A
:10093C0042F480221A601A6842F480321A6008E08D
:10094C008F4B1A6822F480321A601A6822F48022C3
:10095C001A606368EBB1FFF735FD054605E0FFF75C
:10096C0031FD401B642800F240834FF4003393FAAE
:10097C00A3F3834B19684FF4003393FAA3F3B3FA40
:10098C0083F303F01F03012202FA03F31942E6D0AA
:10099C001CE0FFF717FD054605E0FFF713FD401BB4
:1009AC00642800F224834FF4003393FAA3F3744BBE
:1009BC0019684FF4003393FAA3F3B3FA83F303F0FB
:1009CC001F03012202FA03F31942E6D1236813F044
:1009DC00020F00F093806A4B9B6803F00C03042B0E
:1009EC000AD0674B9B6803F00C030C2B28D1644B8B
:1009FC009B6813F4803F23D1022393FAA3F3604B3B
:100A0C001968022393FAA3F3B3FA83F303F01F03D9
:100A1C00012202FA03F3194203D0E368934240F037
:100A2C00E8825748436823F4F85123694FF4F8528D
:100A3C0092FAA2F2B2FA82F293400B4343605DE069
:100A4C00E368A3B3012292FAA2F3B3FA83F303F19E
:100A5C00845303F58E139B001A60FFF7B3FC054615
:100A6C0005E0FFF7AFFC401B022800F2C482022312
:100A7C0093FAA3F3424B1968022393FAA3F3B3FA44
:100A8C0083F303F01F03012202FA03F31942E8D0A7
:100A9C003B48436823F4F85123694FF4F85292FA17
:100AAC00A2F2B2FA82F293400B43436026E0012398
:100ABC0093FAA3F3B3FA83F303F1845303F58E1380
:100ACC009B0000221A60FFF77DFC054605E0FFF74E
:100ADC0079FC401B022800F29082022393FAA3F3C4
:100AEC00274B1968022393FAA3F3B3FA83F303F0A9
:100AFC001F03012202FA03F31942E8D1236813F011
:100B0C00100F00F0E4801E4B9B6813F00C0F72D199
:100B1C004FF4007393FAA3F3194B19684FF4007355
:100B2C0093FAA3F3B3FA83F303F01F03012202FA3F
:100B3C0003F3194203D0A369002B00F06082206AF2
:100B4C000F4B5B6803F4604398421BD9FFF75CFEC4
:100B5C00002840F056820A494B6823F46042236A0D
:100B6C0013434B604B6823F07F40E3694FF07F42A7
:100B7C0092FAA2F2B2FA82F2934003434B601AE06B
:100B8C0000380240B7494B6823F46043184348606F
:100B9C004B6823F07F40E3694FF07F4292FAA2F258
:100BAC00B2FA82F2934003434B60206AFFF72CFEAB
:100BBC00002840F02882236A4FF4604292FAA2F295
:100BCC00B2FA82F2D3405A1C4FF400439340A54A28
:100BDC00926802F0F001F02292FAA2F2B2FA82F2DA
:100BEC0021FA02F2A0498A5CD340A04A136000208B
:100BFC00FFF7BEFB6BE0A369002B3ED04FF4807374
:100C0C0093FAA3F3B3FA83F303F1845303F58E132E
:100C1C009B0001221A60FFF7D5FB054605E0FFF7A4
:100C2C00D1FB401B022800F2F0814FF4007393FAC1
:100C3C00A3F38C4B19684FF4007393FAA3F3B3FA34
:100C4C0083F303F01F03012202FA03F31942E6D0E7
:100C5C0084494B6823F46042236A13434B604B680E
:100C6C0023F07F40E3694FF07F4292FAA2F2B2FA8E
:100C7C0082F2934003434B6029E04FF4807393FA64
:100C8C00A3F3B3FA83F303F1845303F58E139B00A0
:100C9C0000221A60FFF796FB054605E0FFF792FB72
:100CAC00401B022800F2B3814FF4007393FAA3F3B4
:100CBC006C4B19684FF4007393FAA3F3B3FA83F3F4
:100CCC0003F01F03012202FA03F31942E6D1236851
:100CDC0013F0080F49D063691BB3012191FAA1F2FB
:100CEC00B2FA82F2624B13449B001960FFF76AFB65
:100CFC00054605E0FFF766FB401B022800F28981E0
:100D0C00022393FAA3F2574A516B93FAA3F3B3FA63
:100D1C0083F303F01F03012202FA03F31942E9D013
:100D2C0023E0012292FAA2F2B2FA82F2504B13445F
:100D3C009B0000221A60FFF745FB054605E0FFF714
:100D4C0041FB401B022800F26681022393FAA3F2B6
:100D5C00444A516B93FAA3F3B3FA83F303F01F03E2
:100D6C00012202FA03F31942E9D1236813F0040FAC
:100D7C0000F0A1803B4B5B6A13F0805F0BD1394BC9
:100D8C005A6A42F080525A625B6A03F080530193B4
:100D9C00019B012500E00025364B1B6813F4807F76
:100DAC0013D1344A136843F480731360FFF70AFBC2
:100DBC00064605E0FFF706FB801B642800F22D8138
:100DCC002C4B1B6813F4807FF4D0A368012B05D146
:100DDC00244A536B43F4807353631FE04BB9214B8C
:100DEC005A6B22F480725A635A6B22F480625A63F3
:100DFC0014E0052B09D11B4B5A6B42F480625A63E9
:100E0C005A6B42F480725A6308E0164B5A6B22F408
:100E1C0080725A635A6B22F480625A63A368EBB1F6
:100E2C00FFF7D0FA064607E0FFF7CCFA801B41F239
:100E3C008833984200F2F3804FF4007393FAA3F2D4
:100E4C00084A516B93FAA3F3B3FA83F303F01F032D
:100E5C00012202FA03F31942E6D026E0FFF7B2FAB8
:100E6C00064611E000380240E83300080C00002070
:100E7C00A0C1911000700040FFF7A4FA801B41F252
:100E8C008833984200F2CD804FF4007393FAA3F2AA
:100E9C006A4A516B93FAA3F3B3FA83F303F01F037B
:100EAC00012202FA03F31942E6D125B1634A536ACF
:100EBC0023F080535362636A002B00F0B4805F4AC6
:100ECC00926802F00C020C2A00F0AF80022B5FD16A
:100EDC004FF0807393FAA3F3B3FA83F303F18453C3
:100EEC0003F58E139B0000221A60FFF76BFA054680
:100EFC0005E0FFF767FA401B022800F298804FF0DC
:100F0C00007393FAA3F34D4B19684FF0007393FAE7
:100F1C00A3F3B3FA83F303F01F03012202FA03F3E2
:100F2C001942E6D14548836823F47D01A26AE36A3D
:100F3C001343226B13430B4383604FF0807393FA7C
:100F4C00A3F3B3FA83F303F1845303F58E139B00DD
:100F5C0001221A60FFF736FA044604E0FFF732FA72
:100F6C00001B022865D84FF0007393FAA3F3334BA0
:100F7C0019684FF0007393FAA3F3B3FA83F303F0F9
:100F8C001F03012202FA03F31942E7D0002053E0B9
:100F9C004FF0807393FAA3F3B3FA83F303F1845302
:100FAC0003F58E139B0000221A60FFF70BFA044620
:100FBC0004E0FFF707FA001B02283CD84FF000733F
:100FCC0093FAA3F31D4B19684FF0007393FAA3F334
:100FDC00B3FA83F303F01F03012202FA03F319425D
:100FEC00E7D1002028E0012026E0032024E00320A4
:100FFC0022E0012020E003201EE003201CE0012061
:10100C001AE0012018E0012016E0032014E0032070
:10101C0012E0032010E003200EE003200CE003207C
:10102C000AE0032008E0002006E0012004E0032091
:10103C0002E0032000E0032002B070BD0038024043
:10104C00234B9B6803F00C02082A3ED00C2A03D0D9
:10105C00042A28D11F48704703F470114FF4701202
:10106C0092FAA2F2B2FA82F221FA02F21A49895CDD
:10107C0003F440034FF4400090FAA0F0B0FA80F073
:10108C00C3400133124A926812F4803F05D01348D2
:10109C0000FB01F0B0FBF3F070470E4A02FB01F0CD
:1010AC00B0FBF3F070470A4B586800F460434FF400
:1010BC00604090FAA0F0B0FA80F023FA00F0013012
:1010CC004FF4004303FA00F070470448704700BF28
:1010DC00003802400024F4000034000800366E0191
:1010EC0070B5924B1B6803F001038B4212D201299D
:1010FC0004D18E4A136843F0040313608B4A1368BF
:10110C0023F001030B431360136803F001039942AE
:10111C0040F0F780036813F0020F06D0844CA368EC
:10112C0023F0F00283681343A3600D460446036862
:10113C0013F0010F00F09F804368022B13D14FF482
:10114C00003292FAA2F27A4A10684FF4003292FA04
:10115C00A2F2B2FA82F202F01F02012101FA02F2AB
:10116C0010423ED1CFE0032B13D14FF0007292FA14
:10117C00A2F26F4A10684FF0007292FAA2F2B2FA21
:10118C0082F202F01F02012101FA02F2104228D170
:10119C00BBE0012B11D1022292FAA2F2644A106830
:1011AC00022292FAA2F2B2FA82F202F01F0201219A
:1011BC0001FA02F2104214D1A9E04FF4007292FA33
:1011CC00A2F25B4A10684FF4007292FAA2F2B2FAE1
:1011DC0082F202F01F02012101FA02F2104200F029
:1011EC00988053498A6822F0030213438B60FFF7FF
:1011FC00E9F806466368022B0FD107E0FFF7E2F827
:10120C00801B41F28833984200F28580484B9B68E2
:10121C0003F00C03082BF1D12DE0032B0ED106E0CB
:10122C00FFF7D0F8801B41F28833984275D8404BB9
:10123C009B6803F00C030C2BF2D11CE0012B15D195
:10124C0006E0FFF7BFF8801B41F28833984266D85E
:10125C00374B9B6803F00C03042BF2D10BE0FFF728
:10126C00B1F8801B41F2883398425AD8304B9B68B6
:10127C0013F00C0FF3D12D4B1B6803F001039D42AF
:10128C0011D2012D04D1294A136843F004031360D1
:10129C00264A136823F001032B431360136803F0F1
:1012AC0001039D423FD1236813F0040F06D020495F
:1012BC008B6823F4E062E36813438B60236813F0BC
:1012CC00080F07D01A4A936823F46053216943EA44
:1012DC00C1039360FFF7B4FE154B9B6803F0F0025B
:1012EC00F02393FAA3F3B3FA83F322FA03F3114A2C
:1012FC00D35CD840104B18600020FFF739F8002061
:10130C0070BD012070BD012070BD012070BD012099
:10131C0070BD012070BD032070BD032070BD032083
:10132C0070BD032070BD012070BD00BF003C0240A9
:10133C0000380240E83300080C000020014B18680C
:10134C00704700BF0C00002008B5FFF7F7FF084BF3
:10135C009B6803F4E0624FF4E06393FAA3F3B3FAEF
:10136C0083F322FA03F3034AD35CD84008BD00BFD1
:10137C0000380240F833000808B5FFF7DFFF084BD0
:10138C009B6803F460524FF4605393FAA3F3B3FADF
:10139C0083F322FA03F3034AD35CD84008BD00BFA1
:1013AC0000380240F833000890F83930DBB2122BC9
:1013BC0001D0322B2AD18368B3F5805F0FD1036A39
:1013CC0002681B88C3F30803536003691BB9036AE3
:1013DC000233036209E0036A0133036205E0026829
:1013EC00036A591C01621B785360C38C013B9BB28E
:1013FC00C3846BB90268D36823F08003D36002689E
:10140C00D36843F04003D36000207047022070473C
:10141C00002070472DE9F843044601680B6923F45A
:10142C004052C36813430B618168036919434369D4
:10143C001943C36919430068C26822F4164323F0A8
:10144C000C030B43C36021684B6923F44072A369FE
:10145C0013434B61E369B3F5004F40F0B28027684A
:10146C00AF4B9F4255D1FFF787FF00EB800000EB9D
:10147C00800065686D00B0FBF5F5AA4EA6FB05353E
:10148C006D092D01FFF778FF00EB800000EB800069
:10149C0063685B00B0FBF3F9FFF76EFF00EB8000B5
:1014AC0000EB800063685B00B0FBF3F3A6FB032347
:1014BC005B094FF0640808FB1393DB003233A6FB87
:1014CC0003235B095B0003F4F8731D44FFF754FF1F
:1014DC0000EB800000EB800063685B00B0FBF3F96D
:1014EC00FFF74AFF00EB800000EB800063685B00B5
:1014FC00B0FBF3F3A6FB03235B0908FB1393DB00A0
:10150C003233A6FB0336C6F342163544BD60BDE844
:10151C00F883FFF719FF00EB800000EB8000656893
:10152C006D00B0FBF5F57F4EA6FB05356D092D0161
:10153C00FFF70AFF00EB800000EB800063685B00A4
:10154C00B0FBF3F9FFF700FF00EB800000EB80002D
:10155C0063685B00B0FBF3F3A6FB03235B094FF05E
:10156C00640808FB1393DB003233A6FB03235B09EF
:10157C005B0003F4F8731D44FFF7E6FE00EB8000FC
:10158C0000EB800063685B00B0FBF3F9FFF7DCFE57
:10159C0000EB800000EB800063685B00B0FBF3F3B2
:1015AC00A6FB03235B0908FB13984FEAC80808F154
:1015BC003208A6FB0836C6F342163544BD60BDE8BA
:1015CC00F8832668564B9E4254D1FFF7D5FE00EBAC
:1015DC00800000EB80006568AD00B0FBF5F5514F65
:1015EC00A7FB05356D092D01FFF7C6FE00EB80004A
:1015FC0000EB800063689B00B0FBF3F8FFF7BCFEC8
:10160C0000EB800000EB800063689B00B0FBF3F301
:10161C00A7FB03235B094FF0640909FB13831B0130
:10162C003233A7FB03235B0903F0F0031D44FFF7E0
:10163C00A3FE00EB800000EB800063689B00B0FB16
:10164C00F3F8FFF799FE00EB800000EB8000636875
:10165C009B00B0FBF3F3A7FB03235B0909FB13838C
:10166C001B013233A7FB0323C3F343131D44B560A3
:10167C00BDE8F883FFF768FE00EB800000EB80000C
:10168C006568AD00B0FBF5F5264FA7FB05356D0978
:10169C002D01FFF759FE00EB800000EB8000636822
:1016AC009B00B0FBF3F8FFF74FFE00EB800000EB64
:1016BC00800063689B00B0FBF3F3A7FB03235B097B
:1016CC004FF0640909FB13831B013233A7FB03237F
:1016DC005B0903F0F0031D44FFF736FE00EB8000BE
:1016EC0000EB800063689B00B0FBF3F8FFF72CFE67
:1016FC0000EB800000EB800063689B00B0FBF3F311
:10170C00A7FB03235B0909FB13831B013233A7FBE4
:10171C000323C3F343131D44B560BDE8F88300BF36
:10172C00003801401F85EB512DE9F04105460E466E
:10173C0090461C46FEF746FE0746B8F1000F26D031
:10174C0053E0B4F1FF3F22D024B1FEF73BFEC01BA7
:10175C0084421CD22A68D36823F08003D3602A68A1
:10176C00D36823F02003D3602A68D36823F48073F2
:10177C00D3602A68536923F001035361012385F870
:10178C003930002385F838300320BDE8F0812B6810
:10179C001B6836EA0303D4D10020BDE8F081B4F114
:1017AC00FF3F22D024B1FEF70DFEC01B84421CD299
:1017BC002A68D36823F08003D3602A68D36823F0A7
:1017CC002003D3602A68D36823F48073D3602A681B
:1017DC00536923F001035361012385F83930002349
:1017EC0085F838300320BDE8F0812B681B6836EA99
:1017FC000303D4D00020BDE8F08100BF58B310B56E
:10180C00044690F8393013F0FF0F04D1002380F810
:10181C00383001F01BF8022384F839302268D36881
:10182C0023F40053D3602046FFF7F4FD22681369BC
:10183C0023F4904313612268536923F02A03536104
:10184C002268D36843F40053D3600020E063012383
:10185C0084F8393010BD0120704700BF70B50446C4
:10186C000D461E4690F83930DBB2012B01D0222BED
:10187C005AD1002D5AD0002A5AD094F83830012B66
:10188C0058D0012384F838300023E36394F83930BE
:10189C00DBB2222B03D1322384F8393002E012233D
:1018AC0084F83930A284E28423E0013BE384A3680A
:1018BC00B3F5805F12D13346002280212046FFF71A
:1018CC0033FF002838D122682B88C3F308035360F8
:1018DC0023690BB902350CE001350AE033460022CE
:1018EC0080212046FFF720FF40BB23682A785A60EE
:1018FC000135E38C002BD8D1334600224021204601
:10190C00FFF712FF0346D8B994F83920D2B2322A25
:10191C0003D1222284F8392002E0012284F83920F4
:10192C00002284F838200CE002230AE0012308E0AE
:10193C00012306E0022304E0032302E0032300E07A
:10194C000323184670BD00BF70B504460D461E46F5
:10195C0090F83930DBB2012B01D0122B5FD1002D66
:10196C005FD0002A5FD094F83830012B5DD0012372
:10197C0084F838300023E36394F83930DBB2122B4F
:10198C0003D1322384F8393002E0222384F8393031
:10199C00A285E28530E0013BE385A368B3F5805F67
:1019AC0016D13346002220212046FFF7BDFE002829
:1019BC003DD1236933B923685B68C3F3080325F869
:1019CC00023B19E023685B68DBB225F8013B13E0AE
:1019DC003346002220212046FFF7A6FE48BB236990
:1019EC0023B923685B682B70013505E023685B68BD
:1019FC0003F07F032B700135E38D002BCBD194F8D2
:101A0C003930DBB2322B03D1122384F8393002E0A7
:101A1C00012384F83930002084F8380070BD02208E
:101A2C0070BD012070BD012070BD022070BD03206F
:101A3C0070BD032070BD00BF90F83930DBB2012BB4
:101A4C0001D0122B2FD100292FD0002A2FD090F8A3
:101A5C003830012B2DD0012380F8383081628285FB
:101A6C00C2850023C36390F83930DBB2122B03D14B
:101A7C00322380F8393002E0222380F839300023F9
:101A8C0080F838300168CA6842F48072CA60016814
:101A9C004A6942F001024A610168CA6842F02002B8
:101AAC00CA60184670470220704701207047012019
:101ABC0070470220704700BF704700BF08B502682E
:101ACC00D36823F04003D36090F83930DBB2322B6B
:101ADC0003D1222380F8393002E0012380F8393019
:101AEC00FFF7EAFF002008BD704700BF08B590F86B
:101AFC003930DBB2222B01D0322B4CD18368B3F5B9
:101B0C00805F13D1836A026942B902685268C2F3DA
:101B1C0008021A80836A0233836218E002685268F2
:101B2C00D2B21A80836A0133836210E0036933B93D
:101B3C00836A5A1C8262026852681A7007E0826AD1
:101B4C00531C836203685B6803F07F031370C38DBF
:101B5C00013B9BB2C38503BB0268D36823F020030F
:101B6C00D36090F83930DBB2322B03D1122380F8DA
:101B7C0039300CE00268D36823F48073D3600268B8
:101B8C00536923F001035361012380F83930FFF7C7
:101B9C00ABFF002008BD022008BD002008BD00BF1F
:101BAC00704700BF10B582B0044603681968DA6844
:101BBC0011F0010F06D002F480721AB1C26B42F020
:101BCC000102C26319685A6902F0010211F0020F96
:101BDC0004D01AB1E16B41F00401E163196811F012
:101BEC00040F04D01AB1E16B41F00201E1631968F2
:101BFC0011F0080F04D01AB1E26B42F00802E26354
:101C0C001A68DB6803F0200312F0200F03D013B125
:101C1C002046FFF76BFF23681A68DB6803F080032C
:101C2C0012F0800F03D013B12046FFF7BDFB2368E1
:101C3C001A68DB6803F0400312F0400F03D013B1B5
:101C4C002046FFF73BFFE36B5BB123681A680192F8
:101C5C005B680193019B012384F839302046FFF720
:101C6C009FFF02B010BD00BFFEE700BF08B50D4BD3
:101C7C001B6813B90C4A0B4B1A600A4B1A68C31C2D
:101C8C0023F00303134409498B4206D900F0B8FE34
:101C9C000C2303604FF0FF3008BD02490B60104667
:101CAC0008BD00BF7C00002080020020003C012009
:101CBC0001230360014B0B60704700BF0400002040
:101CCC000FB400B583B004AB53F8042B01938021FF
:101CDC00064800F0C7FE002803DD0146034800F06B
:101CEC0007F803B05DF804EB04B0704784000020E3
:101CFC004FF0FF30704700BF08B500F087F8024B7B
:101D0C00024A9A6008BD00BF00ED00E00000000828
:101D1C0008B500F09FF808BDF8B504460D46174607
:101D2C001E462648FFF7CCFF21682548FFF7C8FF61
:101D3C0061682448FFF7C4FFA1682348FFF7C0FF80
:101D4C00E1682248FFF7BCFF21692148FFF7B8FF83
:101D5C0061692048FFF7B4FFA1691F48FFF7B0FF86
:101D6C00E1691E48FFF7ACFF1D48FFF7A9FF2946A4
:101D7C001C48FFF7A5FF1C4CE16A1C48FFF7A0FFAD
:101D8C00216B1B48FFF79CFFE16B1A48FFF798FF8C
:101D9C0015F0800F03D039461748FFF791FF15F463
:101DAC00004F03D031461548FFF78AFF1448FFF760
:101DBC0087FF06991348FFF783FFF8BDA032000890
:101DCC00B0320008C0320008D0320008E0320008FF
:101DDC00F0320008003300081033000820330008EC
:101DEC00303300083C33000800ED00E04C330008B1
:101DFC005C3300086C3300087C3300088C3300081B
:101E0C009C330008A4330008FEE700000E4B1A6850
:101E1C0042F480721A6099680C4A0A409A601A68F7
:101E2C0022F0885222F001121A601A6822F48022E1
:101E3C001A609A6822F47D029A600022DA604FF0F0
:101E4C000062034B9A607047003802400CC0FF8858
:101E5C0000ED00E02B4B9B6803F00C030C2B3AD8E5
:101E6C00DFE803F00739393913393939173939397A
:101E7C001B00244B5B68C3F3423301334FF4004225
:101E8C0002FA03F3204A136030E0204A1E4B1A601A
:101E9C002CE01E4A1C4B1A6028E01A4A9168936881
:101EAC00C1F383411A48405CC3F3815301339268F8
:101EBC0012F4803F07D1154901FB00F2B2FBF3F39A
:101ECC00114A136012E0114A02FB00F2B2FBF3F369
:101EDC000D4A13600AE00B4B5B68C3F342330133CA
:101EEC004FF4004202FA03F3074A1360054B9B6858
:101EFC00C3F30313074AD15C034A1368CB40136046
:101F0C00704700BF003802400C00002000127A001D
:101F1C0000340008E833000870B506460D46064C40
:101F2C004FF0FF33052205492046FFF797FC044B81
:101F3C001E60256070BD00BF080100200C34000835
:101F4C0004010020F0B58BB0284BDA6942F0040292
:101F5C00DA61DA6902F004020192019ADA6942F05C
:101F6C000102DA61DA6902F001020292029ADA697C
:101F7C0042F00202DA61DA6902F002020392039A79
:101F8C00DA6942F00802DA61DB6903F008030493B2
:101F9C00049B174D002280212846FEF779FB154E35
:101FAC00002240213046FEF773FB4FF4005305939B
:101FBC00114B06930024079405A92846FEF792FAC4
:101FCC0080230593012706970794089405A92846B2
:101FDC00FEF788FA4023059306970794089405A901
:101FEC003046FEF77FFA0BB0F0BD00BF0038024060
:101FFC0000080240000402400000111030B585B00A
:10200C004FF47A70FEF7E4F94FF0FF3311221E49BA
:10201C001E48FFF723FC4FF4FA50FEF7D9F90025C0
:10202C0026E01B4A6B461068516803C312891A805C
:10203C00184C4FF0FF330A2269462046FFF70EFC7E
:10204C00012203A92046FFF7F7FC88B99DF80C3054
:10205C00312B0AD14FF0FF3308220F490B48FFF701
:10206C00FDFB01220D4B1A700BE0302B00D101351A
:10207C00312DD6DD4FF0FF33152209490348FFF708
:10208C00EDFB05B030BD00BFFC3400083C02002065
:10209C001434000828010020103500081C01002011
:1020AC001C35000870B58AB03B4E4FF0FF330A2246
:1020BC003A493046FFF7D2FB394C234653F80C0F04
:1020CC0007901B798DF82030364D4FF0FF330522E9
:1020DC0007A92846FFF7C2FB4FF0FF33062232490F
:1020EC003046FFF7BBFB4FF4FA60FEF771F904AB17
:1020FC00224652F8140F516803C312891A804FF00C
:10210C00FF330A2204A92846FFF7A8FB4FF0FF3340
:10211C000D2226493046FFF7A1FB4FF4FA60FEF77B
:10212C0057F92B685B6801AA234653F8200F5968AE
:10213C0003C21B7A13704FF0FF33092201A9284602
:10214C00FFF78CFB4FF0FF33042209A92846FFF759
:10215C00FBFB4FF0FF33272215493046FFF77EFB80
:10216C009DF826304F2B0DD19DF827304B2B09D1E4
:10217C004FF0FF330F220F493046FFF76FFBFFF78D
:10218C003DFF06E04FF0FF33272209490248FFF7D5
:10219C0065FB0AB070BD00BF3C020020343500085E
:1021AC001434000828010020403500084835000888
:1021BC005835000880350008F0B5ABB0404C23AD65
:1021CC00264656F82C0F7168B268F3680FC5306953
:1021DC00716903C5337E2B703A4E4FF0FF331922D1
:1021EC0023A93046FFF73AFB1CAD274657F8480F9A
:1021FC007968BA68FB680FC53869796903C53B7E95
:10220C002B704FF0FF3319221CA93046FFF726FB29
:10221C0015AD274657F8640F7968BA68FB680FC587
:10222C003869796903C53B7E2B704FF0FF33192257
:10223C0015A93046FFF712FB0EAD274657F8800F55
:10224C007968BA68FB680FC53869796903C53B7E44
:10225C002B704FF0FF3319220EA93046FFF7FEFA10
:10226C0007AD274657F89C0F7968BA68FB680FC50D
:10227C003869796903C53B7E2B704FF0FF33192207
:10228C0007A93046FFF7EAFA6D4654F8B80F6168B3
:10229C00A268E3680FC52069616903C5237E2B70B2
:1022AC004FF0FF33192269463046FFF7D7FA4FF04B
:1022BC00FF33142204490548FFF7D0FA2BB0F0BDC8
:1022CC0014340008BC010020903500083C020020AA
:1022DC0010B594B00024012203A92348FFF7ACFBEE
:1022EC000028F8D1631E9DF80C2014A90B4403F8A8
:1022FC00402C0A2A35D16B461C4A52F8D40F51682F
:10230C0003C312891A8000230AE003F10A0214A9FC
:10231C00194411F8401C14A8024402F8501C013353
:10232C009C42F2DA04F10B0314AA13440D2203F8B5
:10233C00502C04F10C0314AA13440A2203F8502C59
:10234C001444A4B24FF0FF33224669460848FFF705
:10235C0085FA4FF0FF33224669460648FFF77EFAAE
:10236C0000240134B7E700BFBC010020143400087E
:10237C003C02002028010020F0B587B000AF0E46CB
:10238C0032233B73D7237B730122BA730023FB7375
:10239C00102139747A742021B974FA743B757E75E6
:1023AC00C6F1100241213971542179712421B9717E
:1023BC004421F971C02139727B72BA7206F1110293
:1023CC0006F1180121F00701ADEB010D694606E09D
:1023DC0007F118041C4414F8144CCC540133072B8B
:1023EC00F6DD002307E0DC1D07F118051D4415F888
:1023FC000C5C0D5501330A2BF5DD002304E003F1D1
:10240C001104C55C0D550133B342F8DB4FF0FF33BB
:10241C0092B20348FFF722FA1C37BD46F0BD00BF4D
:10242C00FC01002000B583B04FF0FF330B220949AB
:10243C000948FFF713FA094B53F8E00F00901B798A
:10244C008DF8043005216846FFF796FF03B05DF860
:10245C0004FB00BFA83500083C020020143400081F
:10246C00FEE700BF08B50B480B4B03604FF4E1339C
:10247C00436000238360C36003610C22426183616B
:10248C00C361FFF7BBF920B140F2ED110348FFF730
:10249C00E7FF08BD3C02002000440040B4350008B2
:1024AC0008B50B480B4B03604FF4E133436000233A
:1024BC008360C36003610C2242618361C361FFF7D7
:1024CC009DF920B14FF400710348FFF7C9FF08BD17
:1024DC002801002000480040B435000808B50C481D
:1024EC000C4B03600C4B436000238360C3604FF4C0
:1024FC008042026143618361C3610362FEF7D2F8DB
:10250C0020B14FF4DA710548FFF7AAFF08BD00BFF0
:10251C006801002000540040A0860100B43500087A
:10252C0008B50B480B4B03604FF4E13343600023B9
:10253C008360C36003610C2242618361C361FFF756
:10254C005DF920B140F2C7110348FFF789FF08BDC0
:10255C00FC010020004C0040B435000808B50B48C5
:10256C000B4B03604FF4E133436000238360C36083
:10257C0003610C2242618361C361FFF73FF920B113
:10258C004FF4ED710348FFF76BFF08BDBC01002051
:10259C0000500040B435000800B593B01E4A1368D3
:1025AC0023F4C05343F400631360102305930123F9
:1025BC000B9300230C934FF420420D920E9305A81D
:1025CC00FEF76EF920B14FF4C4711448FFF748FFC1
:1025DC000F2300930021019102910391049168460D
:1025EC00FEF77EFD20B14FF4CB710C48FFF738FF9E
:1025FC00FEF7A4FE0A4BA3FB00308009FDF746FF53
:10260C000420FDF759FF002211464FF0FF30FDF773
:10261C00FFFE13B05DF804FB00700040B4350008F9
:10262C00D34D621008B5FDF7B9FEFFF7B5FF0023D7
:10263C003F4A13603F4A136003223F4B1A703F4CD2
:10264C0021463F48FFF768FC4FF0FF330B223D4912
:10265C002046FFF703F941F28830FDF7B9FEFFF78A
:10266C0071FCFFF7FFFEFFF71BFFFFF737FFFFF7CC
:10267C0057FFFFF773FF304B1B78052BFBD801A2DC
:10268C0052F823F0D3260008B12600088326000850
:10269C00A92600081B270008372700080022264B14
:1026AC001A70E8E7FFF788FD4FF4FA70FDF790FE1B
:1026BC004FF0FF330D2224492448FFF7CFF80522B1
:1026CC001D4B1A70D7E74FF0FF330D221E491B48E4
:1026DC00FFF7C4F8174B1B6833B980211C48FDF772
:1026EC00DDFF0122134B1A60FFF7DCFC104C4FF09E
:1026FC00FF33012221681148FFF7B0F8236801333A
:10270C002360042BB7DD04220B4B1A70B3E74FF098
:10271C00FF3306220F490948FFF7A0F8FFF782FEA6
:10272C004FF4FA60FDF754FEA5E7FFF7D1FD00BFAB
:10273C0020010020180100201C0100203C02002078
:10274C0068010020C4350008D43500082801002099
:10275C0000080240E435000800B585B0254B5A6AE4
:10276C0042F000425A625A6A02F000420192019A07
:10277C001A6A42F001021A621A6A02F0010202920B
:10278C00029A5A6A42F080525A625B6A03F0805392
:10279C000393039B0320FDF729FE002211466FF0E3
:1027AC000B00FDF735FE002211466FF00A00FDF715
:1027BC002FFE002211466FF00900FDF729FE0022C2
:1027CC0011466FF00400FDF723FE002211466FF056
:1027DC000300FDF71DFE002211466FF00100FDF70E
:1027EC0017FE002211464FF0FF30FDF711FE05B029
:1027FC005DF804FB003802400268114B9A421ED16E
:10280C0000B587B04FF44073019312230293012358
:10281C00039303230493042305930DEB030109484D
:10282C00FDF760FE084B5A6A42F400125A625B6A6A
:10283C0003F400130093009B07B05DF804FB704792
:10284C00005400400004024000380240F0B58BB048
:10285C0003684B4A934221D14A4B5A6A42F40022F4
:10286C005A625B6A03F400230193019B4FF44063AB
:10287C00059302230693012307930323089308234C
:10288C00099305A94048FDF72DFE00221146302082
:10289C00FDF7BEFD3020FDF7EDFD6EE03B4A9342A7
:1028AC002BD1384B5A6A42F480125A625B6A03F499
:1028BC0080130293029B4FF48053059302270697D3
:1028CC0001260796032508950824099405A92E4886
:1028DC00FDF708FE042305930697079608950994BF
:1028EC0005A92B48FDF7FEFD002211463120FDF70E
:1028FC008FFD3120FDF7BEFD3FE0264A934218D1F3
:10290C00204B5A6A42F400325A625B6A03F4003379
:10291C000393039B0C230593022306930123079334
:10292C00032308930723099305A91B48FDF7DAFD38
:10293C0023E01A4A934220D1124B5A6A42F4802265
:10294C005A625B6A03F480230493049B4FF4406344
:10295C00059302230693012307930323089307236C
:10296C00099305A90E48FDF7BDFD0022114627204D
:10297C00FDF74EFD2720FDF77DFD0BB0F0BD00BF30
:10298C00004C00400038024000080240005000405B
:10299C00000C02400044004000000240004800408F
:1029AC0000040240704700BFFEE700BFFEE700BF17
:1029BC00FEE700BFFEE700BF704700BF704700BFD7
:1029CC00704700BF08B5FDF7F5FCFDF787FD08BDA6
:1029DC0008B50248FFF7E6F808BD00BF2801002043
:1029EC0008B50248FFF7DEF808BD00BFFC01002067
:1029FC0008B50248FFF7D6F808BD00BFBC0100209F
:102A0C00014B1868704700BF7000002030B5141ED1
:102A1C0005469BB0184604DA8B232B604FF0FF3031
:102A2C001DE04FF40273ADF80C300CBF234604F1DB
:102A3C00FF33029305934FF6FF7300910491ADF8A9
:102A4C000E3002461E9B6946284600F073F8431C64
:102A5C00BCBF8B232B6014B1009B00221A701BB0DF
:102A6C0030BD000007B5009313460A4601460348E3
:102A7C000068FFF7CBFF03B05DF804FB700000208B
:102A8C002DE9F0478E6882469E420C469146984648
:102A9C003ED88A8912F4906F3AD0256809690223CE
:102AAC006F1A656905EB450595FBF3F57B1C4344F3
:102ABC009D4238BF1D4653050FD5294600F04AFBF1
:102ACC00064698B13A46216900F0D2FAA38923F45C
:102ADC00906343F08003A38113E02A4600F098FB37
:102AEC00064670B92169504600F0E8FA0C23CAF882
:102AFC000030A3894FF0FF3043F04003A381BDE8C1
:102B0C00F08726613E44266046466561ED1BA56054
:102B1C00464528BF464649463246206800F0B3FA7F
:102B2C00A36800209B1BA36023681E442660BDE89D
:102B3C00F08700002DE9F04F9DB003938B89804600
:102B4C001C060D4616460DD50B695BB9402100F0ED
:102B5C0001FB2860286118B90C23C8F80030CDE0BF
:102B6C0040236B610023099320238DF82930DFF873
:102B7C009CB130238DF82A3037463C4614F8013B83
:102B8C001BB9B7EB060910D003E0252BF9D027466B
:102B9C00F3E74B46324629464046FFF771FF0130BA
:102BAC0000F0A780099B4B4409933B78002B00F065
:102BBC00A08000234FF0FF320493079305920693F5
:102BCC008DF853301A930126052221784E4800F0D7
:102BDC0041FA671C049B38B14B4A3C46801A06FAF2
:102BEC0000F018430490EFE7D90644BF20228DF87B
:102BFC0053201A0744BF2B228DF8532022782A2AFF
:102C0C0003D0079A00210A200BE0039A111D1268C9
:102C1C000391002A10DA524243F00200079204900A
:102C2C000BE027463B780134303B092B03D800FBE3
:102C3C0002320121F5E701B107923B782E2B1ED110
:102C4C007B782A2B0AD1039B02371A1D1B6803922F
:102C5C00002BB8BF4FF0FF33059310E0002319464B
:102C6C000593781C0A2407463A780130303A092A31
:102C7C0003D804FB01210123F5E703B105910322DD
:102C8C003978224800F0E6F940B14023CBEB000044
:102C9C0003FA00F0049B013718430490397806229C
:102CAC001B487E1C8DF8281000F0D4F988B1194B04
:102CBC0033B9039B073323F007030833039314E062
:102CCC0003AB00932A46144B04A94046AFF3008093
:102CDC0007E003AB00932A460F4B04A9404600F0D3
:102CEC0093F8B0F1FF3F824603D0099B53440993FC
:102CFC0042E7AB895B0601D4099801E04FF0FF3045
:102D0C001DB0BDE8F08F00BFEC350008F2350008AF
:102D1C00F6350008000000008D2A00082DE9F04768
:102D2C0091461F460A698B6806469342B8BF134604
:102D3C00C9F8003091F843200C46DDF8208012B120
:102D4C000133C9F800302368990642BFD9F8003026
:102D5C000233C9F80030256815F0060510D104F1CE
:102D6C00190A07E00123524639463046C047013064
:102D7C001AD00135E368D9F800209B1A9D42F1DB8B
:102D8C0094F843302268003318BF012392060FD504
:102D9C00E118302081F843005A1C94F84510224465
:102DAC00023382F8431003E04FF0FF30BDE8F087A8
:102DBC0004F1430239463046C0470130F4D0226852
:102DCC00D9F80050E36802F00602042A08BF5D1B24
:102DDC002269A3680CBF25EAE57500259342C4BFA0
:102DEC009B1AED184FF000091A344D4509D00123F8
:102DFC00224639463046C0470130D5D009F1010989
:102E0C00F3E70020BDE8F0872DE9F04317460A7E72
:102E1C0085B06E2A984606460C460C9B01F1430E73
:102E2C0000F0AE8011D8632A22D009D8002A00F015
:102E3C00BB80582A40F0CA8081F84520834955E070
:102E4C00642A1ED0692A1CD0C0E0732A00F0B0801E
:102E5C0009D86F2A2ED0702A40F0B8800A6842F048
:102E6C0020020A603EE0752A24D0782A3AD0ADE0E0
:102E7C001A6801F14205111D1960136884F842307B
:102E8C00A8E021681A6811F0800F02D0111D19609A
:102E9C0008E011F0400F02F10401196002D0B2F900
:102EAC00003000E01368002B3CDA2D225B4284F8E2
:102EBC00432037E021681A6811F0800F02D0111DF1
:102ECC00196007E011F0400F02F10401196001D004
:102EDC00138800E01368227E5C496F2A14BF0A2213
:102EEC0008221BE078225A4984F845202268186889
:102EFC0012F0800F00F104051D6003D1550601D5B9
:102F0C00038800E00368D00744BF42F0200222602F
:102F1C001BB9226822F0200222601022002084F8C3
:102F2C00430001E049490A226568002DA56008DBD1
:102F3C00206820F0040020602BB9002D7DD175464F
:102F4C000CE0002B79D07546B3FBF2F002FB10338A
:102F5C00CB5C05F8013D03460028F5D1082A0BD1BE
:102F6C002368DA0708D5236962689A42DEBF3023EA
:102F7C0005F8013C05F1FF35C5EB0E0323612EE08E
:102F8C0008681A6810F0800F496903D0101D18608A
:102F9C00136808E010F0400F02F104001860136889
:102FAC0001D0198000E0196000232361754616E0FA
:102FBC001A68111D1960156800216268284600F016
:102FCC0049F808B1401B6060636804E004F14205F5
:102FDC0084F8422001232361002384F84330CDF888
:102FEC0000803B4603AA21463046FFF797FE01308E
:102FFC0002D14FF0FF3026E023692A46394630468D
:10300C00C0470130F5D023689B0710D5002504F18B
:10301C00190907E001234A4639463046C0470130BA
:10302C00E7D00135E368039A9B1A9D42F2DBE06816
:10303C00039B9842B8BF184605E00B7804F1420593
:10304C0084F842308AE705B0BDE8F083FD3500080E
:10305C000E36000810B5C9B202449042034605D0A2
:10306C001C7801308C42F8D1184610BD002010BDE0
:10307C0010B5431E0A44914204D011F8014B03F8D9
:10308C00014FF8E710BD884210B501EB020301D8DF
:10309C00421E0BE09842FBD28118D21AD34204D0C4
:1030AC0013F8014D01F8014DF8E710BD994204D019
:1030BC0011F8014B02F8014FF8E710BD38B5054681
:1030CC00002944D051F8043C0C1F002BB8BFE41865
:1030DC0000F0D4F81E4A1368114613B963601460EB
:1030EC0030E0A3420DD92268A018834201BF1868B2
:1030FC005B681218226063600C6023E0A24203D864
:10310C0013465A68002AF9D118681918A1420BD134
:10311C002168014458188242196013D11068526812
:10312C00014419605A600DE002D90C232B6009E0B0
:10313C0021686018824201BF10685268091821602A
:10314C0062605C602846BDE8384000F098B838BD35
:10315C001001002070B5CD1C25F0030508350C2D91
:10316C0038BF0C25002D064601DBA94202D90C23E1
:10317C00336046E000F082F8234B1C681A46214667
:10318C00A1B10B685B1B0ED40B2B03D90B60CC18B5
:10319C00CD501EE08C420BBF63684B6813606360BC
:1031AC0018BF0C4615E00C464968E9E7174C236834
:1031BC001BB9304600F052F820602946304600F02A
:1031CC004DF8431C18D0C41C24F00304A0420DD1AC
:1031DC002560304600F053F804F10B00231D20F05D
:1031EC000700C31A0ED05A42E25070BD211A304665
:1031FC0000F034F80130EBD10C233360304600F092
:10320C003EF8002070BD00BF100100200C01002012
:10321C00F8B5074615460E4621B91146BDE8F840EB
:10322C00FFF798BF1AB9FFF749FF2846F8BD00F021
:10323C0027F885420ED929463846FFF78BFF0446FE
:10324C0050B131462A46FFF713FF31463846FFF797
:10325C0035FF01E03046F8BD2046F8BD38B5064CC8
:10326C000023054608462360FEF700FD431C02D1EF
:10327C00236803B12B6038BD2401002070477047D0
:10328C0051F8040C0028BEBF091851F8043CC018B2
:10329C0004387047537461636B206672616D653AD4
:1032AC000A000000205230203D2020253038580ADA
:1032BC0000000000205231203D2020253038580AD3
:1032CC0000000000205232203D2020253038580AC2
:1032DC0000000000205233203D2020253038580AB1
:1032EC000000000020523132203D20253038580A91
:1032FC0000000000204C52203D2020253038580A78
:10330C0000000000205043203D2020253038580A72
:10331C000000000020505352203D20253038580A20
:10332C00000000004653522F4641523A0A0000005A
:10333C002043465352203D2020253038580A0000A7
:10334C002048465352203D2020253038580A000092
:10335C002044465352203D2020253038580A000086
:10336C002041465352203D2020253038580A000079
:10337C00204D4D464152203D20253038580A000042
:10338C002042464152203D2020253038580A00006A
:10339C004D6973630A000000204C522F4558435F5F
:1033AC0052455455524E3D20253038580A000000E5
:1033BC005B486172644661756C745D0A00000000C4
:1033CC005B4275734661756C745D0A005B55736185
:1033DC0067654661756C745D0A00000000000000B2
:1033EC0000000000010203040607080900000000A9
:1033FC0001020304030406080C101820300000001E
:10340C00746573740000000041542B4E4A533D3FC9
:10341C000D0A000041545A0D0A00000041542B4380
:10342C00464D3D310D0A000041542B4A4F494E0D7B
:10343C000A00000024505352463130332C30302CCB
:10344C0030302C30302C30312A32340D0A00000050
:10345C0024505352463130332C30312C30302C36F2
:10346C00302C30312A32330D0A00000024505352D4
:10347C00463130332C30322C30302C30302C303133
:10348C002A32360D0A000000245053524631303394
:10349C002C30332C30302C30302C30312A32370D4C
:1034AC000A00000024505352463130332C30342C57
:1034BC0030302C30302C30312A32300D0A000000E4
:1034CC0024505352463130332C30352C30302C3084
:1034DC00302C30312A32310D0A00000041542B536C
:1034EC00454E443D323A00006572726F7200000026
:1034FC00436865636B20436F6E6E656374696F6EB2
:10350C000A0000004A4F494E4544210A00000000C1
:10351C00434F554C44204E4F54204A4F494E2C207B
:10352C005245534554210A00496E6974204C6F7200
:10353C00610A000052455345540A0000434F4E4661
:10354C0049524D204D4F44450A0000004E6F206FEC
:10355C007220706F6F7220636F6E6E656374696F2B
:10356C006E2077697468204C6F7261204D6F6475A2
:10357C006C650A00545259204A4F494E494E472E09
:10358C002E2E0A0047505320697320696E697469A6
:10359C00616C697A6564210A000000004A4F494E4B
:1035AC00204552524F520A002E2E2F7372632F6DEC
:1035BC0061696E2E630000005374617274696E67EA
:1035CC002E2E2E0A0000000044616E676572207A70
:1035DC006F6E65210A000000416C61726D0A00007B
:1035EC00232D302B2000686C4C00656667454647E0
:1035FC000030313233343536373839414243444563
:10360C0046003031323334353637383961626364D1
:03361C00656600E0
:1036200078563412800000200000000068FF1F0060
:10363000000000000000000000000000000000008A
:10364000000000000000000000000000000000007A
:10365000000000000000000000000000000000006A
:10366000000000000000000000000000000000005A
:10367000000000000000000000000000000000004A
:10368000000000000000000000000000000000003A
:0836900010000020325476986E
:040000050800013DB1
:00000001FF
