:020000040800F2
:1000000000800120A9020008B5160008B9160008F2
:10001000BD160008C1160008C51600080000000043
:10002000000000000000000000000000C9160008E9
:10003000CD16000800000000D1160008D5160008F3
:100040007913000879130008791300087913000860
:100050007913000879130008791300087913000850
:100060007913000879130008791300087913000840
:100070007913000879130008791300087913000830
:1000800079130008791300087913000800000000B4
:1000900000000000000000000000000079130008CC
:1000A0007913000879130008791300087913000800
:1000B00079130008791300087913000879130008F0
:1000C00079130008791300087913000879130008E0
:1000D0007913000879130008791300080000000064
:1000E0007913000879130008791300080000000054
:1000F000000000000000000000000000791300086C
:100100000000000079130008791300087913000833
:1001100000000000000000000000000000000000DF
:10012000791300087913000879130008791300087F
:10013000791300080000000000000000000000002B
:10014000000000000000000000000000791300081B
:10015000791300087913000879130008791300084F
:100160007913000879130008000000000000000067
:10017000000000000000000000000000000000007F
:1001800000000000791300080000000000000000DB
:100190007913000800B583B001F066F8304B314A9E
:1001A0001360314A1360314B314A03E01168196022
:1001B000043304322F498B42F8D32A4B1A682E4B52
:1001C0009A4204D1284B1A682C4B9A4200D0FEE781
:1001D000234B2B4A13602B4A13602B4B02E0002267
:1001E0001A600433294A9342F9D3254B1B6813B98B
:1001F000244B1B6803B1FEE701F042F8694601A8F1
:1002000001F00EF8224C234B1C1BA410002504E027
:100210001F4B53F8253098470135AC42F8DC1E4C93
:100220001E4B1C1BA410002504E01B4B53F825306B
:1002300098470135AC42F8DC0099019801F0BEF90D
:100240000546174C174B1C1BA41004E0013C144B33
:1002500053F824309847002CF8DC284600F0BCFF07
:10026000BABADECA0000002074000020000000209E
:10027000C82400087800002078563412325476984A
:100280007800002054010020780000205801002050
:10029000D4030008D4030008D4030008D4030008E2
:1002A000D4030008D403000808B5FFF773FF00BFAC
:1002B00000BEFEE71EF0040F0CBFEFF30880EFF363
:1002C00009807146364A10472DE9F04182B0044654
:1002D0008846084B5E6B9F6B9D6A074800F0A8FF3D
:1002E000CDF800803B4632462946204600F0CCFF40
:1002F00000BEFEE700ED00E03024000800BEFEE78F
:100300001EF0040F0CBFEFF30880EFF30980714675
:10031000244A10472DE9F04182B004468846084B34
:100320005E6B9F6B9D6A074800F082FFCDF80080EE
:100330003B4632462946204600F0A6FF00BEFEE7B7
:1003400000ED00E0402400081EF0040F0CBFEFF3A6
:100350000880EFF309807146134A10472DE9F041F8
:1003600082B004468846084B5E6B9F6B9D6A0748C7
:1003700000F05EFFCDF800803B463246294620461D
:1003800000F082FF00BEFEE700ED00E04C24000814
:1003900000BEFEE700BEFEE700BEFEE770470000BD
:0C03A000C9020008150300085D030008F6
:1003AC00C82400080000002078000020C8240008A1
:1003BC000000001000000010780000205801002000
:0803CC00000000100000001009
:1003E00010B50446074B1B680748A0FB0330800983
:1003F00000F08AF8002221464FF0FF3000F052F85A
:10040000002010BD0C000020D34D621008B50B4B2E
:100410001A6842F400721A601A6842F480621A6024
:100420001A6842F480721A60032000F029F8002054
:10043000FFF7D6FF01F0E2F8002008BD003C0240C3
:10044000024A136801331360704700BF0C0100209B
:10045000014B1868704700BF0C01002030B583B015
:100460000190FFF7F5FF0546019CB4F1FF3F00D076
:100470000134FFF7EDFF401BA042FAD303B030BDBB
:10048000074AD36823F4E0631B041B0C000200F44A
:10049000E060184340F0BF6040F40030D060704727
:1004A00000ED00E030B4164BDB68C3F30223C3F168
:1004B0000704042C28BF04241D1D062D01D9DD1EB0
:1004C00000E00025012303FA04F4013C2140A94087
:1004D000AB40013B1A400A43002806DA00F00F0047
:1004E0001201D2B2074B1A5407E01201D2B200F146
:1004F000604000F5614080F8002330BC704700BFC9
:1005000000ED00E014ED00E00138B0F1807F0AD288
:10051000064B5860F021064A82F8231000209860AC
:1005200007221A6070470120704700BF10E000E00A
:1005300000ED00E0042805D1054A136843F00403E8
:1005400013607047024A136823F004031360704776
:1005500010E000E0704700BF08B5FFF7FBFF08BDE3
:10056000F0B583B00024BBE00123A3400A6803EA8E
:100570000205AB4240F0B3804A68022A01D0122A39
:1005800010D1E608083650F826C004F0070297009C
:100590000F22BA402CEA020E0A69BA404EEA020261
:1005A00040F82620026867000326BE40F64302EAB0
:1005B000060E4A6802F00302BA404EEA02020260E6
:1005C0004A6802F1FF3EBEF1010F03D9112A01D0A2
:1005D000122A10D1826806EA020ECA68BA404EEAB0
:1005E00002028260426822EA03034A68C2F30012F0
:1005F000A2401A434260C3681E408B68BB4033432D
:10060000C3604B6813F0805F69D000230193374BC0
:100610005A6C42F480425A645B6C03F48043019349
:10062000019BA608B21C324B53F8222004F00303AE
:100630009B000F279F4022EA07072E4A904211D0C5
:1006400002F5806290420FD002F5806290420DD098
:1006500002F5806290420BD002F58062904209D18F
:10066000042208E0002206E0012204E0022202E067
:10067000032200E0072202FA03F33B4302361C4A3E
:1006800042F826301C4B1A68EB4302EA03064F6817
:1006900017F4803F01D045EA0206174A16605268F7
:1006A00003EA02064F6817F4003F01D045EA02064C
:1006B000114A5660926803EA02064F6817F4801FD9
:1006C00001D045EA02060C4A9660D26813404E6893
:1006D00016F4001F01D045EA0203074AD360013433
:1006E0000F2C7FF641AF03B0F0BD00BF00380240D1
:1006F0000038014000000240003C01400AB1816125
:1007000070470904816170474369594041617047EE
:10071000002800F0A58130B583B00446036813F0CB
:10072000010F5AD0A94B9B6803F00C03042B0AD08D
:10073000A64B9B6803F00C03082B0DD1A34B5B6801
:1007400013F4800F08D0A14B1B6813F4003F44D072
:100750006368002B41D185E16368B3F5803F05D123
:100760009A4A136843F48033136015E0B3F5A02F61
:1007700009D1964B1A6842F480221A601A6842F432
:1007800080321A6008E0914B1A6822F480321A60B5
:100790001A6822F480221A6063687BB1FFF758FE62
:1007A000054605E0FFF754FE401B642800F25C811B
:1007B000864B1B6813F4003FF4D00EE0FFF748FEB1
:1007C000054605E0FFF744FE401B642800F24E8119
:1007D0007E4B1B6813F4003FF4D1236813F0020F23
:1007E00050D07A4B9B6813F00C0F0AD0774B9B6864
:1007F00003F00C03082B16D1744B5B6813F4800FC5
:1008000011D1724B1B6813F0020F03D0E368012B68
:1008100040F02E816D4A136823F0F803216943EA02
:10082000C10313602EE0E368D3B10122684B1A6064
:10083000FFF70EFE054605E0FFF70AFE401B022803
:1008400000F21881614B1B6813F0020FF4D05F4A6D
:10085000136823F0F803216943EAC103136011E030
:1008600000225B4B1A60FFF7F3FD054605E0FFF73A
:10087000EFFD401B022800F2FF80544B1B6813F071
:10088000020FF4D1236813F0080F26D0636993B1E7
:100890000122504B1A60FFF7DBFD054605E0FFF72C
:1008A000D7FD401B022800F2E980484B5B6F13F034
:1008B000020FF4D011E00022464B1A60FFF7C8FD8A
:1008C000054605E0FFF7C4FD401B022800F2D88072
:1008D0003E4B5B6F13F0020FF4D1236813F0040F4B
:1008E00061D000230193394B1A6C42F080521A6494
:1008F0001B6C03F080530193019B374A136843F448
:1009000080731360FFF7A4FD054605E0FFF7A0FD27
:10091000401B022800F2B6802F4B1B6813F4807F27
:10092000F4D0A368012B05D1284A136F43F00103CB
:10093000136714E0052B09D1244B1A6F42F004020F
:100940001A671A6F42F001021A6708E01F4B1A6F0C
:1009500022F001021A671A6F22F004021A67A368D4
:100960008BB1FFF775FD054607E0FFF771FD401BF2
:1009700041F28833984200F28780144B1B6F13F0CA
:10098000020FF2D00FE0FFF763FD054606E0FFF728
:100990005FFD401B41F28833984277D80B4B1B6FA9
:1009A00013F0020FF3D1A369002B71D0074A9268AC
:1009B00002F00C02082A6DD0022B3ED10022074B18
:1009C0001A60FFF745FD05460FE000BF0038024002
:1009D00000004742800E47420070004060004742DE
:1009E000FFF736FD401B022856D82F4B1B6813F02B
:1009F000007FF5D1E269236A1343626A43EA8213F6
:100A0000A26A5208013A43EA0243E26A43EA0263F5
:100A1000254A53600122254B1A60FFF719FD044651
:100A200004E0FFF715FD001B022837D81E4B1B689A
:100A300013F0007FF5D0002033E000221B4B1A603A
:100A4000FFF706FD044604E0FFF702FD001B022845
:100A500026D8154B1B6813F0007FF5D1002020E04D
:100A60000120704701201CE003201AE0032018E059
:100A7000012016E0032014E0032012E0032010E020
:100A800003200EE003200CE003200AE0032008E02E
:100A9000002006E0012004E0032002E0032000E043
:100AA000032003B030BD00BF003802406000474261
:100AB00038B5244B9B6803F00C03042B3FD0082B64
:100AC00001D0214838BD1F4B5A6802F03F025B68D5
:100AD00013F4800F0AD01B4B5968C1F3881100230F
:100AE0001A48A1FB000100F0FBFD1FE0154B5B68FD
:100AF000C3F38813DC000025690141EAD461600179
:100B0000041B61EB0505A90141EA9461A001001BEA
:100B100061EB0501C01841F100018B0243EA9053DB
:100B2000840220461946002300F0DAFD054B5B687D
:100B3000C3F3014301335B00B0FBF3F038BD03485E
:100B400038BD00BF003802400024F40040787D0129
:100B5000002800F0978070B50446514B1B6803F0E5
:100B60000F038B4208D2CBB24D4A1370136803F0C7
:100B70000F03994240F08880236813F0020F17D0CA
:100B800013F0040F04D0474A936843F4E053936092
:100B9000236813F0080F04D0424A936843F460437B
:100BA00093604048836823F0F002A3681343836096
:100BB0000D46236813F0010F2FD06268012A05D17A
:100BC000384B1B6813F4003F0ED15FE0931E012BDE
:100BD00005D8344B1B6813F0007F05D158E0314B2A
:100BE0001B6813F0020F55D02E498B6823F00303C6
:100BF00013438B60FFF72CFC064606E0FFF728FC4A
:100C0000801B41F28833984246D8264B9B6803F0FC
:100C10000C036268B3EB820FF0D1214B1B6803F029
:100C20000F039D4207D2EAB21D4B1A701B6803F0F6
:100C30000F039D4232D1236813F0040F06D01949E7
:100C40008B6823F4E052E36813438B60236813F04E
:100C5000080F07D0134A936823F46043216943EADD
:100C6000C1039360FFF724FF0E4B9B68C3F303138C
:100C70000D4AD35CD8400D4B18600020FFF7B0FB45
:100C8000002070BD01207047012070BD012070BDA3
:100C9000012070BD012070BD032070BD012070BD1A
:100CA000003C0240003802405C2400080C00002098
:100CB000014B1868704700BF0C00002008B5FFF713
:100CC000F7FF044B9B68C3F38223034AD35CD840ED
:100CD00008BD00BF003802406C24000808B5FFF7CB
:100CE000E7FF044B9B68C3F34233034AD35CD8400D
:100CF00008BD00BF003802406C2400082DE9F8430D
:100D0000044601680B6923F44052C36813430B6126
:100D10000068C36823F4164222F00C02A16823691C
:100D2000194363691943E3690B431343C3602168A3
:100D30004B6923F44072A36913434B61E369B3F534
:100D4000004F40F0BB80276803F1804303F5104358
:100D50009F4203D003F580639F4257D1FFF7BEFF48
:100D600000EB800000EB800065686D00B0FBF5F5DE
:100D7000AB4EA6FB05356D092D01FFF7AFFF00EB6C
:100D8000800000EB800063685B00B0FBF3F9FFF7C5
:100D9000A5FF00EB800000EB800063685B00B0FB08
:100DA000F3F3A6FB03235B094FF0640808FB1393DE
:100DB000DB003233A6FB03235B095B0003F4F8730B
:100DC0001D44FFF78BFF00EB800000EB80006368A1
:100DD0005B00B0FBF3F9FFF781FF00EB800000EB55
:100DE000800063685B00B0FBF3F3A6FB03235B09A1
:100DF00008FB13984FEAC80808F13208A6FB08362A
:100E0000C6F342163544BD60BDE8F883FFF756FFD0
:100E100000EB800000EB800065686D00B0FBF5F52D
:100E20007F4EA6FB05356D092D01FFF747FF00EB4F
:100E3000800000EB800063685B00B0FBF3F9FFF714
:100E40003DFF00EB800000EB800063685B00B0FBBF
:100E5000F3F3A6FB03235B094FF0640808FB13932D
:100E6000DB003233A6FB03235B095B0003F4F8735A
:100E70001D44FFF723FF00EB800000EB8000636858
:100E80005B00B0FBF3F9FFF719FF00EB800000EB0C
:100E9000800063685B00B0FBF3F3A6FB03235B09F0
:100EA00008FB13984FEAC80808F13208A6FB083679
:100EB000C6F342163544BD60BDE8F8832668594B39
:100EC0009E4203D003F580639E4254D1FFF706FF94
:100ED00000EB800000EB80006568AD00B0FBF5F52D
:100EE0004F4FA7FB05356D092D01FFF7F7FE00EB0E
:100EF000800000EB800063689B00B0FBF3F8FFF715
:100F0000EDFE00EB800000EB800063689B00B0FB0F
:100F1000F3F3A7FB03235B094FF0640909FB138379
:100F20001B013233A7FB03235B0903F0F0031D44CD
:100F3000FFF7D4FE00EB800000EB800063689B00AD
:100F4000B0FBF3F8FFF7CAFE00EB800000EB800077
:100F500063689B00B0FBF3F3A7FB03235B0909FB6A
:100F600013831B013233A7FB0323C3F343131D4435
:100F7000B560BDE8F883FFF7A1FE00EB800000EB51
:100F800080006568AD00B0FBF5F5254FA7FB053582
:100F90006D092D01FFF792FE00EB800000EB800051
:100FA00063689B00B0FBF3F8FFF788FE00EB80005E
:100FB00000EB800063689B00B0FBF3F3A7FB032307
:100FC0005B094FF0640909FB13831B013233A7FB54
:100FD00003235B0903F0F0031D44FFF76FFE00EBF2
:100FE000800000EB800063689B00B0FBF3F8FFF724
:100FF00065FE00EB800000EB800063689B00B0FBA7
:10100000F3F3A7FB03235B0909FB13831B013233B3
:10101000A7FB0323C3F343131D44B560BDE8F88366
:101020001F85EB51001001402DE9F04105460F46A8
:1010300016469846069C1EE0B4F1FF3F1BD02CB12B
:10104000FFF706FAC8EB0000844214D22A68D3687E
:1010500023F4D073D3602A68536923F001035361EA
:10106000202385F8393085F83A30002385F8383068
:101070000320BDE8F0812B681B6837EA03030CBF2F
:1010800001230023B342D7D00020BDE8F08100BF88
:1010900068B310B5044690F8393013F0FF0F04D14F
:1010A000002380F8383000F0D9FA242384F839304E
:1010B0002268D36823F40053D3602046FFF71EFE56
:1010C0002268136923F4904313612268536923F063
:1010D0002A0353612268D36843F40053D36000208D
:1010E000E063202384F8393084F83A3010BD0120C1
:1010F000704700BF2DE9F04182B01E4690F83930AC
:10110000DBB2202B56D104460D469046002953D021
:10111000002A53D090F83830012B51D0012380F8A9
:1011200038300023C363212380F83930FFF790F96A
:101130000746A4F82480A4F8268027E0E38C9BB21D
:10114000013B9BB2E384A368B3F5805F12D10096A4
:101150003B46002280212046FFF766FF90BB2268B5
:101160002B88C3F30803536023690BB902350DE0E4
:1011700001350BE000963B46002280212046FFF718
:1011800053FF08BB23682A785A600135E38C9BB271
:10119000002BD3D100963B46002240212046FFF78A
:1011A00043FF034690B9202284F83920002284F8B6
:1011B00038200CE002230AE0012308E0012306E0C6
:1011C000022304E0032302E0032300E00323184684
:1011D00002B0BDE8F08100BFFEE700BF08B50D4BCF
:1011E0001B6813B90C4A0B4B1A600A4B1A68C31CD4
:1011F00023F00303134409498B4206D900F0FCFB9A
:101200000C2303604FF0FF3008BD02490B6010460D
:1012100008BD00BF7C00002058010020007C012098
:1012200001230360014B0B60704700BF04000020E6
:101230000FB400B583B004AB53F8042B01938021A5
:10124000064800F015FC002803DD0146034800F0C5
:1012500007F803B05DF804EB04B070478400002089
:101260004FF0FF30704700BF08B500F087F8024B21
:10127000024A9A6008BD00BF00ED00E000000008CF
:1012800008B500F09BF808BDF8B504460D461746B2
:101290001E462648FFF7CCFF21682548FFF7C8FF08
:1012A00061682448FFF7C4FFA1682348FFF7C0FF27
:1012B000E1682248FFF7BCFF21692148FFF7B8FF2A
:1012C00061692048FFF7B4FFA1691F48FFF7B0FF2D
:1012D000E1691E48FFF7ACFF1D48FFF7A9FF29464B
:1012E0001C48FFF7A5FF1C4CE16A1C48FFF7A0FF54
:1012F000216B1B48FFF79CFFE16B1A48FFF798FF33
:1013000015F0800F03D039461748FFF791FF15F409
:10131000004F03D031461548FFF78AFF1448FFF706
:1013200087FF06991348FFF783FFF8BD14230008D1
:101330002423000834230008442300085423000811
:101340006423000874230008842300089423000801
:10135000A4230008B023000800ED00E0C02300082B
:10136000D0230008E0230008F02300080024000830
:101370001024000818240008FEE700000C4B1A682F
:1013800042F001021A60002199601A6822F084720A
:1013900022F480321A60074A5A601A6822F48022C6
:1013A0001A60D9604FF00062034B9A60704700BF2B
:1013B000003802401030002400ED00E0224B9B6812
:1013C00003F00C03042B07D0082B09D0002B2DD1E0
:1013D0001E4A1F4B1A602CE01E4A1D4B1A6028E063
:1013E000194B5A685B6803F03F0312F4800F09D071
:1013F000184AB2FBF3F2144B5B68C3F3881303FB88
:1014000002F208E0114AB2FBF3F30F4A5168C1F34C
:10141000881101FB03F20C4B5B68C3F301430133FA
:101420005B00B2FBF3F30A4A136002E0074A084B81
:101430001A60054B9B68C3F30313074AD15C044A47
:101440001368CB4013607047003802400024F4005A
:101450000C00002040787D015C24000830B589B084
:1014600000240194124B1A6B42F001021A631A6BAA
:1014700002F001020192019A02941A6B42F00202F8
:101480001A631B6B03F002030293029B094D224671
:1014900020212846FFF732F92023039301230493E8
:1014A0000594069403A92846FFF75AF809B030BD01
:1014B000003802400000024008B54FF0FF3304221C
:1014C00001460248FFF716FE08BD00BF14010020C8
:1014D000FEE700BF08B50B480B4B03604FF4E13348
:1014E000436000238360C36003610C224261836117
:1014F000C361FFF7CDFD18B18B210448FFF7E8FF6A
:1015000008BD00BF14010020001001407424000831
:1015100000B595B000220192244B196C41F0805126
:1015200019641B6C03F080530193019B02922049C4
:101530000B6823F4404343F400430B600B6803F44F
:1015400040430293029B0223089301230B93102331
:101550000C930E9208A8FFF7DBF818B1602115482C
:10156000FFF7B6FF0F230393002104910591069125
:10157000079103A8FFF7ECFA18B16E210D48FFF7A9
:10158000A7FFFFF795FB0C4BA3FB00308009FEF78C
:10159000BBFF0420FEF7CEFF002211464FF0FF30C4
:1015A000FEF780FF15B05DF804FB00BF0038024075
:1015B0000070004074240008D34D621000B583B061
:1015C000FEF724FFFFF7A4FFFFF748FFFFF782FFB6
:1015D00020210848FFF798F8074B93E80300009094
:1015E0008DF804106846FFF767FF4FF47A70FEF736
:1015F00035FFEDE7000002408424000808B5032011
:10160000FEF73EFF002211466FF00B00FEF74AFF87
:10161000002211466FF00A00FEF744FF0022114637
:101620006FF00900FEF73EFF002211466FF0040044
:10163000FEF738FF002211466FF00300FEF732FF7D
:10164000002211466FF00100FEF72CFF0022114628
:101650004FF0FF30FEF726FF08BD00BF0268124BB7
:101660009A421FD100B587B0002300930F4B5A6CEC
:1016700042F010025A645B6C03F010030093009B6D
:101680004FF4C063019302230293012303930323C6
:1016900004930723059301A90548FEF761FF07B0EE
:1016A0005DF804FB704700BF0010014000380240A5
:1016B00000000240704700BFFEE700BFFEE700BF2A
:1016C000FEE700BFFEE700BF704700BF704700BFE6
:1016D000704700BF08B5FEF7B3FEFEF73DFF08BD3B
:1016E00053B94AB9002908BF00281CBF4FF0FF3189
:1016F0004FF0FF3000F07EB9ADF1080C6DE904CE7B
:1017000000F006F8DDF804E0DDE9022304B07047DC
:101710002DE9F0478C460E460446089D002B50D11B
:101720008A4217466CD9B2FA82FEBEF1000F0BD086
:10173000CEF1200420FA04F401FA0EF644EA060C75
:1017400002FA0EF700FA0EF44FEA1749220CBCFB1E
:10175000F9F01FFA87F809FB10C642EA064600FBBB
:1017600008F3B34209D9F61900F1FF3280F0228163
:10177000B34240F21F8102383E44F61AA2B2B6FBD1
:10178000F9F309FB136642EA064403FB08F8A04597
:1017900009D9E41903F1FF3280F00A81A04540F233
:1017A0000781023B3C44C8EB040443EA00400021AB
:1017B000002D62D024FA0EF400232C606B60BDE88B
:1017C000F0878B4207D9002D55D0002185E84100D4
:1017D0000846BDE8F087B3FA83F1002940F0908015
:1017E000B34202D3824200F2F880841A66EB030609
:1017F0000120B446002D40D085E81010BDE8F087E8
:1018000012B90127B7FBF2F7B7FA87FEBEF1000F56
:1018100035D1F31B4FEA17481FFA87FC0121B3FBB0
:10182000F8F0220C08FB103642EA06460CFB00F3E7
:10183000B34207D9F61900F1FF3202D2B34200F2E7
:10184000CE801046F61AA2B2B6FBF8F308FB136678
:1018500042EA06440CFB03FCA44507D9E41903F152
:10186000FF3202D2A44500F2B5801346CCEB04044B
:1018700043EA00409CE729462846BDE8F087CEF1C0
:10188000200106FA0EF307FA0EF720FA01F94FEAE3
:101890001748CE4049EA0309B6FBF8FA4FEA194463
:1018A00008FB1A661FFA87FC44EA06430AFB0CF29F
:1018B0009A4200FA0EF40AD9DB190AF1FF3180F0DE
:1018C00087809A4240F28480AAF1020A3B449B1A24
:1018D0001FFA89F9B3FBF8F108FB113349EA034316
:1018E00001FB0CF69E4207D9DB1901F1FF326BD2E6
:1018F0009E4269D902393B449B1B41EA0A418EE76B
:10190000C1F1200E22FA0EF48B40234320FA0EF789
:1019100006FA01F44FEA134C26FA0EF63C43B6FBE6
:10192000FCF9270C0CFB19661FFA83F847EA0646F8
:1019300009FB08F7B74202FA01F200FA01FA08D9E6
:10194000F61809F1FF3041D2B7423FD9A9F1020997
:101950001E44F61BA0B2B6FBFCF40CFB146640EA76
:10196000064704FB08F8B84507D9FF1804F1FF3013
:1019700028D2B84526D9023C1F4444EA0940C8EBA6
:101980000707A0FB02894F4544464E4614D329D091
:1019900065B3BAEB040367EB060707FA0EFECB400C
:1019A000CF404EEA030385E888000021BDE8F087B8
:1019B0001346F8E61046E0E6B8EB020469EB0306CE
:1019C0000138E5E70446D8E7114695E78146C0E7C8
:1019D0008A467CE7023B3C4448E708460AE702386F
:1019E0003E442FE7C245E7D33E46D1E72946BDE84E
:1019F000F08700BF704700BF014B1868704700BFF9
:101A00007000002010B5431E0A44914204D011F822
:101A1000014B03F8014FF8E710BD30B5141E054621
:101A20009BB0184604DA8B232B604FF0FF301DE08B
:101A30004FF40273ADF80C3014BF04F1FF332346AA
:101A4000029305934FF6FF7300910491ADF80E30A9
:101A500002461E9B6946284600F072F8431CBCBF34
:101A60008B232B6014B1009B00221A701BB030BD79
:101A700007B5009313460A46014603480068FFF77E
:101A8000CCFF03B05DF804FB700000202DE9F047A7
:101A90008E689E4282460C46914698463ED88A8978
:101AA00012F4906F3AD0256809696F1A65690223AC
:101AB00005EB450595FBF3F57B1C43449D4238BF80
:101AC0001D4653050FD5294600F084FB064698B104
:101AD0003A462169FFF796FFA38923F4906343F008
:101AE0008003A38113E02A4600F0D2FB064670B9BA
:101AF0002169504600F020FB0C23CAF80030A3896E
:101B000043F04003A3814FF0FF30BDE8F08726612A
:101B100065613E44ED1B2660A5604646464528BFEC
:101B2000464632464946206800F0EAFAA3689B1B05
:101B3000A36023681E4426600020BDE8F0870000F3
:101B40002DE9F04F9DB0804603938B891C060D460E
:101B500016460DD50B695BB9402100F03BFB2860B0
:101B6000286118B90C23C8F80030CDE040236B6120
:101B70000023099320238DF82930DFF89CB130230E
:101B80008DF82A3037463C4614F8013B1BB9B7EBB9
:101B9000060910D003E0252BF9D02746F3E74B4682
:101BA000324629464046FFF771FF013000F0A7801A
:101BB000099B4B4409933B78002B00F0A080002345
:101BC0004FF0FF3204930793059206938DF853303C
:101BD0001A930126052221784E4800F041FA671C2D
:101BE000049B38B14B4A801A06FA00F0184304905F
:101BF0003C46EFE7D90644BF20228DF853201A0750
:101C000044BF2B228DF8532022782A2A03D0079A2A
:101C100000210A200BE0039A111D12680391002A8B
:101C200010DA524243F00200079204900BE027467C
:101C300001343B78303B092B03D800FB02320121F1
:101C4000F5E701B107923B782E2B1ED17B782A2B2A
:101C50000AD1039B1A1D1B680392002BB8BF4FF0DB
:101C6000FF330237059310E000230593781C1946D3
:101C70000A24074601303A78303A092A03D804FB8F
:101C800001210123F5E703B10591032239782248A8
:101C900000F0E6F940B14023CBEB000003FA00F07E
:101CA000049B18430490013739781C488DF828109C
:101CB00006227E1C00F0D4F988B1194B33B9039B7E
:101CC000073323F007030833039314E003AB0093B7
:101CD0002A46144B04A94046AFF3008007E003AB4B
:101CE00000932A460F4B04A9404600F093F8B0F148
:101CF000FF3F824603D0099B5344099342E7AB89D7
:101D00005B0601D4099801E04FF0FF301DB0BDE83B
:101D1000F08F00BF8C24000892240008962400084D
:101D2000000000008D1A00082DE9F04791461F467B
:101D30000A698B68DDF820809342B8BF1346C9F862
:101D4000003091F8432006460C4612B10133C9F821
:101D500000302368990642BFD9F800300233C9F831
:101D60000030256815F0060510D104F1190A07E0C6
:101D70000123524639463046C04701301AD001355A
:101D8000E368D9F800209B1A9D42F1DB94F84330B8
:101D90002268003318BF012392060FD5E1185A1CA0
:101DA000302081F84300224494F8451082F8431013
:101DB000023303E04FF0FF30BDE8F08704F1430247
:101DC00039463046C0470130F4D02268D9F8005077
:101DD000E36802F00602042A08BF5D1B2269A368BB
:101DE0000CBF25EAE57500259342C4BF9B1AED1888
:101DF0004FF000091A344D4509D0012322463946D7
:101E00003046C0470130D5D009F10109F3E7002081
:101E1000BDE8F0872DE9F04317460A7E85B06E2AAB
:101E2000984606460C460C9B01F1430E00F0AE802E
:101E300011D8632A22D009D8002A00F0BB80582A82
:101E400040F0CA8081F84520834955E0642A1ED0BD
:101E5000692A1CD0C0E0732A00F0B08009D86F2A2C
:101E60002ED0702A40F0B8800A6842F020020A6042
:101E70003EE0752A24D0782A3AD0ADE01A6801F104
:101E80004205111D1960136884F84230A8E02168EA
:101E90001A6811F0800F02D0111D196008E011F0CE
:101EA000400F02F10401196002D0B2F9003000E0E5
:101EB0001368002B3CDA2D225B4284F8432037E084
:101EC00021681A6811F0800F02D0111D196007E017
:101ED00011F0400F02F10401196001D0138800E0F5
:101EE0001368227E5C496F2A14BF0A2208221BE075
:101EF00078225A4984F845202268186812F0800F29
:101F000000F104051D6003D1550601D5038800E0EA
:101F10000368D00744BF42F0200222601BB9226848
:101F200022F0200222601022002084F8430001E009
:101F300049490A226568A560002D08DB206820F069
:101F4000040020602BB9002D7DD175460CE0002BDC
:101F500079D07546B3FBF2F002FB1033CB5C05F889
:101F6000013D03460028F5D1082A0BD12368DA0782
:101F700008D5236962689A42DEBF302305F8013C28
:101F800005F1FF35C5EB0E0323612EE008681A68E2
:101F9000496910F0800F03D0101D1860136808E025
:101FA00010F0400F02F104001860136801D019808E
:101FB00000E0196000232361754616E01A68111DC0
:101FC0001960156862680021284600F049F808B1D8
:101FD000401B6060636804E004F1420584F842201D
:101FE00001232361002384F84330CDF800803B4671
:101FF00003AA21463046FFF797FE013002D14FF089
:10200000FF3026E023692A4639463046C047013072
:10201000F5D023689B0710D5002504F1190907E0C6
:1020200001234A4639463046C0470130E7D00135E2
:10203000E368039A9B1A9D42F2DBE068039B984297
:10204000B8BF184605E00B7884F8423004F1420529
:102050008AE705B0BDE8F0839D240008AE2400089F
:1020600001F0FF01102A2BDB10F0070F08D010F849
:10207000013B013A8B422DD010F0070F42B3F6D14D
:10208000F0B441EA012141EA014122F007047FF066
:1020900000070023F0E80256083C85EA010586EABD
:1020A000010685FA47F5A3FA87F586FA47F6A5FAF9
:1020B00087F68EB9EED1F0BC01F0FF0102F0070205
:1020C00032B110F8013B013A83EA010313B1F8D1B0
:1020D0000020704701387047002D06BF3546033891
:1020E000073815F0010F07D1013015F4807F02BFCA
:1020F000013015F4C03F0130F0BC0138704700BF1B
:10210000884210B501EB020301D8421E0BE0984251
:10211000FBD28118D21AD34204D013F8014D01F832
:10212000014DF8E710BD994204D011F8014B02F8B7
:10213000014FF8E710BD000038B50546002946D02C
:1021400051F8043C0C1F002BB8BFE41800F0D6F87F
:102150001F4A1368114613B96360146032E0A3424A
:102160000ED92268A018834204BF18685B686360B8
:1021700004BF121822600C6024E0A24203D8134668
:102180005A68002AF9D118681918A1420BD12168A0
:10219000014458188242196014D1106852685A607C
:1021A000014419600EE002D90C232B600AE021687B
:1021B0006018824204BF10685268626004BF091848
:1021C00021605C602846BDE8384000F098B838BD12
:1021D0000801002070B5CD1C25F0030508350C2D35
:1021E00038BF0C25002D064601DBA94202D90C237D
:1021F000336046E000F082F8234B1C681A46214603
:10220000A1B10B685B1B0ED40B2B03D90B60CC1850
:10221000CD501EE08C420DBF63684B686360136055
:1022200018BF0C4615E00C464968E9E7174C2368CF
:102230001BB9304600F052F820602946304600F0C5
:102240004DF8431C18D0C41C24F00304A0420DD147
:102250002560304600F053F804F10B00231D20F0F8
:102260000700C31A0ED05A42E25070BD211A304600
:1022700000F034F80130EBD10C233360304600F02D
:102280003EF8002070BD00BF0801002004010020BE
:10229000F8B5074615460E4621B91146BDE8F84087
:1022A000FFF798BF1AB9FFF747FF2846F8BD00F0BF
:1022B00027F885420ED929463846FFF78BFF04469A
:1022C00050B131462A46FFF79DFB31463846FFF7AD
:1022D00033FF01E03046F8BD2046F8BD38B5064C66
:1022E0000023054608462360FEF778FF431C02D111
:1022F000236803B12B6038BD100100207047704780
:1023000051F8040C0028BEBF091851F8043CC0184D
:1023100004387047537461636B206672616D653A6F
:102320000A000000205230203D2020253038580A75
:1023300000000000205231203D2020253038580A6E
:1023400000000000205232203D2020253038580A5D
:1023500000000000205233203D2020253038580A4C
:102360000000000020523132203D20253038580A2C
:1023700000000000204C52203D2020253038580A13
:1023800000000000205043203D2020253038580A0E
:102390000000000020505352203D20253038580ABC
:1023A000000000004653522F4641523A0A000000F6
:1023B0002043465352203D2020253038580A000043
:1023C0002048465352203D2020253038580A00002E
:1023D0002044465352203D2020253038580A000022
:1023E0002041465352203D2020253038580A000015
:1023F000204D4D464152203D20253038580A0000DE
:102400002042464152203D2020253038580A000005
:102410004D6973630A000000204C522F4558435FFA
:1024200052455455524E3D20253038580A00000080
:102430005B486172644661756C745D0A000000005F
:102440005B4275734661756C745D0A005B55736120
:1024500067654661756C745D0A000000000000004D
:102460000000000001020304060708090000000044
:10247000010203042E2E2F7372632F6D61696E2E7D
:10248000630000005445535400000000232D302BFE
:102490002000686C4C006566674546470030313265
:1024A00033343536373839414243444546003031BC
:0F24B0003233343536373839616263646566001C
:0824C00050F2FF7F0100000053
:1024C8007856341280000020000000000024F40038
:1024D80000000000000000000000000000000000F4
:1024E80000000000000000000000000000000000E4
:1024F80000000000000000000000000000000000D4
:1025080000000000000000000000000000000000C3
:1025180000000000000000000000000000000000B3
:1025280000000000000000000000000000000000A3
:082538001000002032547698D7
:040000050800019559
:00000001FF
